:020000041A00E0
:10000000008000102113001A7901001A7B01001AE8
:100010007D01001A7F01001A8101001A6E65FF53ED
:100020000000000000000000000000008301001A32
:100030008501001A000000008701001ABD25001A82
:10004000BB01001ABB01001ABB01001A000000002E
:10005000BB01001ABB01001ABB01001ABB01001A48
:100060006927001ABB01001ABB01001ABB01001A64
:10007000BB01001ABB01001ABB01001ABB01001A28
:10008000BB01001ABB01001ABB01001ABB01001A18
:10009000BB01001ABB01001ABB01001ABB01001A08
:1000A000BB01001ABB01001ABB01001ABB01001AF8
:1000B000BB01001ABB01001ABB01001ABB01001AE8
:1000C000BB01001ABB01001ABB01001ABB01001AD8
:1000D000BB01001ABB01001ABB01001ABB01001AC8
:1000E000BB01001ABB01001ABB01001ABB01001AB8
:1000F00000000000BB01001ABB01001ABB01001A7E
:1001000000000000BB01001ABB01001ABB01001A6D
:10011000BB01001AB080001A000000102C0A000079
:10012000B080001A0000081000000000B080001A23
:100130000000002000000000B080001A00800020B5
:1001400000000000B080001A00C000200000000085
:10015000300A0010C000000000000810000000007D
:1001600000000020000000000080002000000000CF
:1001700000C0002000000000FEE7FEE7FEE7FEE70B
:10018000FEE7FEE7FEE7FEE7FEE7002393420AD222
:1001900010B450F8044B41F8044B04339342F8D3A5
:1001A0005DF8044B7047704700238B4204D2002255
:1001B00040F8042B0433F8E77047FEE7FFFFFFFF2A
:1001C000FFFFFFFFFFFFFFFFFFFFFFFFFFFFFFFF3F
:1001D000FFFFFFFFFFFFFFFFFFFFFFFFFFFFFFFF2F
:1001E000FFFFFFFFFFFFFFFFFFFFFFFFFFFFFFFF1F
:1001F000FFFFFFFFFFFFFFFFFFFFFFFFFFFFFFFF0F
:10020000FFFFFFFFFFFFFFFFFFFFFFFFFFFFFFFFFE
:10021000FFFFFFFFFFFFFFFFFFFFFFFFFFFFFFFFEE
:10022000FFFFFFFFFFFFFFFFFFFFFFFFFFFFFFFFDE
:10023000FFFFFFFFFFFFFFFFFFFFFFFFFFFFFFFFCE
:10024000FFFFFFFFFFFFFFFFFFFFFFFFFFFFFFFFBE
:10025000FFFFFFFFFFFFFFFFFFFFFFFFFFFFFFFFAE
:10026000FFFFFFFFFFFFFFFFFFFFFFFFFFFFFFFF9E
:10027000FFFFFFFFFFFFFFFFFFFFFFFFFFFFFFFF8E
:10028000FFFFFFFFFFFFFFFFFFFFFFFFFFFFFFFF7E
:10029000FFFFFFFFFFFFFFFFFFFFFFFFFFFFFFFF6E
:1002A000FFFFFFFFFFFFFFFFFFFFFFFFFFFFFFFF5E
:1002B000FFFFFFFFFFFFFFFFFFFFFFFFFFFFFFFF4E
:1002C000FFFFFFFFFFFFFFFFFFFFFFFFFFFFFFFF3E
:1002D000FFFFFFFFFFFFFFFFFFFFFFFFFFFFFFFF2E
:1002E000FFFFFFFFFFFFFFFFFFFFFFFFFFFFFFFF1E
:1002F000FFFFFFFFFFFFFFFFFFFFFFFFFFFFFFFF0E
:1003000000B585B080238DF80C308DF80D100023DA
:100310000093022203A900F007FC05B05DF804FB7E
:1003200000B585B083238DF80C30C1F307438DF8F9
:100330000D30C1F307238DF80E308DF80F10002318
:100340000093042203A900F0EFFB05B05DF804FB65
:1003500000B585B096238DF80C308DF80D10002374
:100360000093022203A900F0DFFB05B05DF804FB57
:1003700000B585B095238DF808300B788DF80930DD
:100380004B788DF80A308B788DF80B30CB788DF860
:100390000C3000230093052202A900F0C5FB05B034
:1003A0005DF804FB10B584B00D248DF80C400C0AE8
:1003B0008DF80D408DF80E1000931346032203A90B
:1003C00000F0B2FB04B010BD10B584B01D248DF850
:1003D0000C400C0A8DF80D408DF80E1000218DF8A0
:1003E0000F1000931346042203A900F0D5FB04B0BC
:1003F00010BD10B584B00E248DF80C408DF80D1092
:1004000000931346022203A900F08EFB04B010BD36
:1004100030B587B0BDF8284008258DF80C5021FA7A
:1004200005F58DF80D508DF80E10110A8DF80F108E
:100430008DF810201A0A8DF811208DF81230230A39
:100440008DF813308DF8144000230093092203A97E
:1004500000F06AFB07B030BD00B585B086238DF88B
:1004600008300B0E8DF80930C1F307438DF80A30C0
:10047000C1F307238DF80B308DF80C100023009387
:10048000052202A900F050FB05B05DF804FB00B5A1
:1004900085B08A238DF80C308DF80D100023009361
:1004A000022203A900F040FB05B05DF804FB00B593
:1004B00085B08E238DF80C308DF80D108DF80E2040
:1004C00000230093032203A900F02EFB05B05DF882
:1004D00004FB30B587B005460C468C238DF81030F0
:1004E0000B881A0A8DF811208DF812308B788DF850
:1004F0001330CB788DF814300B799BB101238DF834
:100500001530637983B101238DF8163000230093F1
:10051000072204A9284600F007FB034630B118461D
:1005200007B030BD0023EAE70023EDE700238DF894
:100530000F3001230DF10F0240F236712846FFF70C
:1005400043FF03460028EAD163797BB19DF80F3061
:1005500023F004038DF80F3001230DF10F0240F258
:1005600036712846FFF71EFF0346D8E79DF80F3087
:1005700043F004038DF80F30EEE700B585B08F230C
:100580008DF80C308DF80D108DF80E20002300939F
:10059000032203A900F0C8FA05B05DF804FBF0B52A
:1005A00085B006460F460C46F82928BFF8240134CA
:1005B000640800251F2C05D90334C4F387046B1C81
:1005C000DDB2F7E7A0238DF80C306B00013304FA9D
:1005D00003F38DF80D3000230093022203A9304667
:1005E00000F0A2FA034600B917B9184605B0F0BDED
:1005F000E300DBB22B448DF80B3001230DF10B022D
:1006000040F206713046FFF7CDFE0346EDE710B528
:1006100084B00C46C0238DF80C3000238DF80B30CD
:10062000012200920DF10B0303A900F0B5FA024676
:1006300038B99DF80B30C3F342012170C3F30213A4
:100640006370104604B010BD10B40A4CA4FB003215
:10065000120B43F6095101FB120141F6846303EBCF
:100660008133A4FB03131B0B03EB82305DF8044BB7
:10067000704700BF83DE1B4310B504460846FFF7F2
:10068000E3FF01462046FFF7E7FE10BD80017047FB
:10069000B1F5802F09D210B504460846FFF7F6FFE2
:1006A00001462046FFF73CFE10BD0220704770B5A2
:1006B00082B004460D46164600238DF8073001230C
:1006C0000DF1070240F68901FFF77EFE034680B96F
:1006D000012D11D09DF8073043F004038DF8073049
:1006E00001230DF1070240F689012046FFF75AFE6B
:1006F0000346184602B070BD062E06D09DF807309E
:1007000043F004038DF80730EAE79DF8073023F043
:1007100004038DF80730E3E730B585B005460C4695
:100720008B238DF808300B788DF809304B788DF8D5
:100730000A308B788DF80B30CB7803F001038DF8FD
:100740000C3000230093052202A900F0EDF90346C6
:1007500010B1184605B030BD627801212846FFF778
:10076000A6FF0346F5E700230F2B0ADC10B4CA5C92
:10077000C45C6240C25401330F2BF8DD5DF8044BBA
:100780007047704700230F2B05DCC25C02498A5C6E
:10079000C2540133F7E770471C77001A4378427957
:1007A0004270427A4271427B427243738378827A0A
:1007B000827083728379827B82718373C37BC27AF6
:1007C000C273C279C272C278C271C370704710B46A
:1007D00002460024204607E05300DBB212F0800FEF
:1007E0000AD1490801341A46072C08DC11F0010F20
:1007F000F2D05040C0B2EFE783F01B03F1E75DF8A1
:10080000044B70472DE9F84F8046002648E008EB7E
:1008100086073D685FFA85FB02215846FFF7D7FF40
:100820008146C5F3072A03215046FFF7D0FFC5F3E1
:1008300007442D0E89EA00006040684008F8260051
:1008400002215046FFF7C3FF80EA0B005FFA80F9F0
:1008500003212046FFF7BBFF89EA0000684078705B
:100860008AEA0B0902212046FFF7B1FF89EA000955
:100870005FFA89F903212846FFF7A9FF89EA0000FA
:10088000B87003215846FFF7A2FF80EA0A004440EF
:10089000E4B202212846FFF79AFF6040F870013663
:1008A000032EB4DDBDE8F88F0F230022002B06DBFA
:1008B000C15C42EA4102C254013BCA09F6E77047F3
:1008C000F0B4056844688268C3680D604C608A6053
:1008D000CB60012600E001360A2E29DC731E1B01C5
:1008E000CD183701C819CC5C6A7B124B13F802C0D3
:1008F000114A925D84EA0C046240CA556A78AC7B66
:100900001C5D62404270AA78EC7B1C5D6240827084
:10091000EA782C7B1B5D5340C37004230F2BDADC79
:10092000EA5CC41814F8044C6240C2540133F5E781
:10093000F0BC70471C77001A1077001A70B5B0B081
:100940000E46154604A9FFF7BBFF6C463068716878
:10095000B268F3680FC421466846FFF704FF01241C
:100960000FE06846FFF70EFF6846FFF717FF68467F
:10097000FFF748FF04AB03EB04116846FFF7F3FEF3
:100980000134092CEDDD6846FFF7FCFE6846FFF7F1
:1009900005FF2CA96846FFF7E6FE6C460FCC2860E1
:1009A0006960AA60EB6030B070BD2DE9F04798B087
:1009B00006460F4690469A460023149315931693C5
:1009C000179304930593069307930093019302935F
:1009D000039310AD2A4614A9FFF7B0FF0CAC95E8BD
:1009E0000F0084E80F002046FFF75EFF9DF94030BE
:1009F000002B19DB08AC0CAB0FCB84E80F002046B2
:100A0000FFF752FF9DF93030002B14DB08F10F0582
:100A10002D0900D10125B8F1000F13D018F00F0FE8
:100A200023D04FF000090FE09DF83F3083F087039B
:100A30008DF83F30DEE79DF82F3083F087038DF887
:100A40002F30E3E74FF000090024691E8C420FDAD3
:100A500007EB04116846FFF786FE6A466946304692
:100A6000FFF76CFF0134A4B2EFE74FF00109EBE7A9
:100A700005F6FF752D01ADB2A8EB05081FFA88F841
:100A8000424607EB011104A803F00EF9B9F1000F7B
:100A90000FD00CA904A8FFF766FE04A96846FFF76B
:100AA00062FE524669463046FFF748FF18B0BDE87F
:100AB000F08718AB9844802308F8503C08A904A894
:100AC000FFF751FEE9E7FFFF08B520B9044903200D
:100AD00001F03FFE08BD0349032001F03AFEF9E7AB
:100AE0002878001A3478001A08B50249032001F06A
:100AF00030FE08BD4478001A08B538B9074903200C
:100B000001F027FE064B01221A7008BD054903209B
:100B100001F01FFE024B00221A70F6E75C78001A03
:100B2000300A00108478001A2DE9F84305460F4674
:100B300090469946BDF82060002495F9010001F027
:100B4000B8FC01280DD10120002101F055FE01342F
:100B5000B4F5FA6FF1D90F49032001F0FAFD032033
:100B600010E0002195F9000001F06EFC4246394684
:100B7000002001F077FD3EB9012195F9000001F058
:100B800063FC0020BDE8F88332464946002001F0AE
:100B900069FDF1E7BC79001A2DE9F84305460F46D7
:100BA00090469946BDF82060002495F9010001F0B7
:100BB00080FC01280DD10120002101F01DFE01342F
:100BC000B4F5FA6FF1D90F49032001F0C2FD0320FB
:100BD00010E0002195F9000001F036FC424639464C
:100BE000002001F03FFD3EB9012195F9000001F020
:100BF0002BFC0020BDE8F88332464946002001F076
:100C00001BFDF1E79479001A30B593B001F0BAFDFD
:100C10004FF4E131032001F051FD002001F0E4FC2C
:100C20003849032001F095FD3749032001F091FD7B
:100C30003649032001F08DFD354A0FAB07CA83E822
:100C400007003449184600F035FA3349032001F013
:100C500080FD002418E001343049032001F079FDC3
:100C600022462F4902A803F015F902A9032001F03A
:100C700070FD2C49032001F06CFD00F069FA42F28E
:100C80001070002101F0B8FD274B1B780BB9092C1F
:100C9000E1DD0BB100250EE02449032001F059FDF0
:100CA0004FF47A70002101F0A7FDF9E747F23050C8
:100CB000002101F0A1FD00F02BFB0028F6D001354A
:100CC00002AC2A461A49204603F0E4F80094204674
:100CD00003F016F98DF8040001238DF80530002388
:100CE0008DF806301349032001F033FD214603201F
:100CF00001F02FFD0B49032001F02BFD684600F0A9
:100D0000B3FAD3E7AC78001ACC78001AF078001A5E
:100D10001C78001A000000102479001A3C79001A8F
:100D20005079001A2079001A300A00105479001AFC
:100D30007C79001A8879001A70B582B03E4B186031
:100D40003E49032001F005FD00210D2001F0A6FA27
:100D500001210F2001F0A2FA00210E2001F09EFADD
:100D600001210D2001F070FB3549032001F0F1FC59
:100D700000210E2001F068FB1420002101F03CFD51
:100D800001210E2001F060FB6420002101F034FD00
:100D90002C49032001F0DDFC00240F2001F089FB29
:100DA000012808D1B4F57A7F05DA0120002101F08D
:100DB00023FD0134F1E7B4F57A7F37DB22490320C4
:100DC00001F0C7FC2149032001F0C3FC204C0021A5
:100DD0002046FFF795FA01212046FFF7B9FA0121D5
:100DE0002046FFF754FB1B492046FFF745FC04262D
:100DF0008DF8046007238DF8053000258DF8065026
:100E000001238DF807300DEB06012046FFF7B0FAFD
:100E1000324616212046FFF74AFB2A46294620463D
:100E2000FFF7ABFB0C4B1D7002B070BD0B490320EC
:100E300001F08FFCC6E700BF340A0010E879001A01
:100E4000047A001A247A001A387A001A5C7A001A96
:100E5000200000100042A536380A0010507A001A0F
:100E600008B501460148FFF707FC08BD2000001047
:100E700030B585B08DF80C208DF80D108DF80E3042
:100E800000258DF80F500F4C03A92046FFF744FCB6
:100E9000BDF82030ADF804308DF80650FF238DF8F2
:100EA00007309DF824308DF808308DF8095001A9DD
:100EB0002046FFF70EFB042216212046FFF7F7FA23
:100EC00005B030BD2000001070B584B01E468DF80E
:100ED0000C108DF80D008DF80E2000258DF80F50A8
:100EE0000E4C03A92046FFF717FCADF804608DF8FF
:100EF0000650FF238DF807309DF824308DF8083018
:100F000001238DF8093001A92046FFF7E2FA9DF888
:100F100020102046FFF743FB04B070BD20000010F6
:100F20002DE9F04186B080460F46234E02233370F0
:100F3000224D00212846FFF7E3F905A92846FFF7CF
:100F400066FB0823ADF80C3000248DF80E408DF8B8
:100F50000F7001238DF810308DF8114003A9284639
:100F6000FFF7B7FA3B46424621462846FFF741FACB
:100F70000094234640F2012211462846FFF748FA22
:100F800041F288312846FFF783FB40F2DC50002114
:100F900001F032FC21462846FFF7B2F90A20002171
:100FA00001F02AFC3470064B1B6813B11B6803B1B7
:100FB000984706B0BDE8F081380A00102000001004
:100FC000340A001008B50249032001F0C2FB08BD35
:100FD0001C7B001A08B50749032001F0BAFB064B39
:100FE0001B7833B9054B1B681BB19B680BB10720FD
:100FF000984708BD287B001A420A0010640A0010B6
:101000002DE9F04105460C4616461F4616490320B9
:1010100001F09FFB154B1B780BB9102C0FD863B157
:10102000134B1B684BB1D3F80480B8F1000F04D008
:101030003B463246E1B22846C047BDE8F0810D4943
:10104000032001F086FB0C4B0C4A1A60074B01226F
:101050001A70074B1B68002BEFD09B68002BECD05D
:1010600000209847E9E700BFF87A001A420A00100A
:10107000640A0010047B001A3C0A001078563412EF
:1010800008B50249032001F064FB08BD447B001A47
:1010900008B50649032001F05CFB054B1B681BB13A
:1010A0001B680BB10020984708BD00BF387B001AB1
:1010B000640A0010002837D0002937D030B583B03B
:1010C0000D461B4A10601B4C08684968AA68EB680B
:1010D0000FC428696969AA69EB690FC41648FFF74C
:1010E0002BFE1649032001F034FB1548FFF7B8FE2C
:1010F000012401940825009523460C2204210E208A
:10110000FFF7B6FE01940A2300932B4622460C21DA
:101110000420FFF7D9FE00200A4B18700A4B1880F4
:101120000A4B188003B030BD04207047042070477C
:10113000640A0010440A001024000010787A001A93
:101140000042A536420A0010400A0010680A00104A
:1011500070B59AB03A4C22783A4B53F82260304638
:10116000FFF77EFE25780835304601F0A3FC32A358
:10117000D3E9002301F042FECDE900012A463249BD
:101180000DA802F087FE0DA9032001F0E2FA2378F2
:1011900001335A4203F0070302F0070258BF5342DB
:1011A000237000238DF81C3009E0C3F107010133DF
:1011B000264A0A44117A1AAA1A4402F84C1C072B30
:1011C000F3DD00230AE0C3F1070103F109021F4820
:1011D000415C1AA8024402F84C1C0133072BF2DDD3
:1011E0001B4A138801339BB213808DF82D301B0AE4
:1011F0008DF82E3003AB132207A91648FFF7D5FB55
:10120000039BCDF82F301449032001F0A2FA1349B3
:10121000032001F09EFA1249032001F09AFA1721E7
:1012200007A8FFF77DFE0F49032001F092FA002086
:101230001AB070BDAFF300800000000080842E4122
:101240006A0A0010547B001A907A001A440A0010AF
:10125000400A0010540A0010A87A001AC47A001A32
:10126000D47A001AE87A001A264B1B78002B41D05A
:10127000002841D00368002B40D00379002B3FD0D9
:10128000F0B5C1B083799BB3802304468DF800305C
:101290001D4B1B688DF801301A0A8DF802201A0CBC
:1012A0008DF803201B0E8DF8043000258DF80550B5
:1012B000164F3E888DF80660330A8DF80730437963
:1012C0008DF80830027901680DF1090002F0ECFC9C
:1012D000217901F10903DBB24DF803500D310136DC
:1012E0003E80C9B26846FFF71BFE284641B0F0BDFC
:1012F0004023CAE705207047042070470420704748
:1013000004207047420A00103C0A0010680A0010CE
:10131000014B1878704700BF420A00107047FFFF6A
:1013200010B572B6194B1A4A1A600433194A1A607A
:10133000002305E0184A4FF0FF3142F82310013333
:10134000072BF7D962B6154B07E003F10C049A6836
:1013500059681868FEF719FF2346114A9342F4D3DF
:1013600006E01C46596854F8080BFEF71DFF23469B
:101370000C4A9342F5D300F04DFF02F0B5F9FFF7A8
:10138000CDFFFFF741FC30BFFDE700BF0031054056
:101390000010DF10FFF7DF0180E200E01401001A07
:1013A0005001001A7801001A70477047054B1B68FE
:1013B00023B1044B1868014419607047014B024A7D
:1013C0001A60F6E76C0A0010F00A001000231C2BCC
:1013D00012D810B4094A02EB830112F823404A786C
:1013E000488802EB4412064941F8220001331C2BC5
:1013F000F0D95DF8044B7047704700BF787B001A46
:101400000060084010B5174AD2F8203123F4704329
:1014100043F41043C2F82031D2F8243123F470434E
:1014200043F41043C2F8243101220F49062000F092
:1014300041FA00244CB10B4B5A6822F00C025A605E
:101440005A6842F003025A6010BD084800EB84015C
:1014500001238A78497810F8240000F069FD0134EE
:10146000E8E700BF0030044000CB280C747B001A72
:1014700008B5FFF7ABFFFFF7C5FF08BD0022052A3F
:1014800019D870B40C4911F8125001EB42014C7894
:101490000A4B05F5006653F826100120A0400143D1
:1014A00043F8261003EB4513002119550132052A94
:1014B000E8D970BC70477047F87B001A00400F40B5
:1014C0000023032B16D830B40B4911F8132001EB7D
:1014D00043014D78094C02F5006254F822100120B6
:1014E000A84021EA000144F822100133032BEBD974
:1014F00030BC7047704700BFF07B001A00400F40BF
:101500000023082B16D830B40B4911F8132001EB37
:1015100043014D78094C02F5006254F82210012075
:10152000A84021EA000144F822100133082BEBD92E
:1015300030BC7047704700BF047C001A00400F4069
:1015400010B582B0084C6946204600F085FA074A7B
:101550006946204600F0A0FA00226946204600F0C5
:10156000B4FA02B010BD00BF00300E40801A060071
:1015700010B50B4C204600F043F9636823F00403D8
:101580006360236823F0FF0343F0070323600549EA
:10159000204600F016F9636843F00203636010BD53
:1015A00000500C40A086010008B5002000F054F95E
:1015B000044B40F60802C3F8842C0349002000F0D5
:1015C0005DF908BD0060084040420F0010B5074CAF
:1015D000204600F067FD4FF4E131204600F0ACFDFD
:1015E0000323E3600123E36510BD00BF00100C403E
:1015F00008B5FFF7EBFF094800F008FAFFF780FF96
:10160000FFF79EFFFFF7B4FFFFF7CEFFFFF736FFB0
:10161000FFF756FF00F060FA08BD00BF00400F4022
:1016200008B5FFF7D3FF08BD0B6833B14A689B5A72
:1016300083604B6802334B6070474FF6FF738360E3
:10164000F7E70B6833B14A689B5C83604B680133F2
:101650004B607047FF238360F8E7C36813F0040F03
:101660001BD0CA680B699A4216D210B40AE0CB6844
:101670000233CB60C36813F0040F0AD0CA680B6949
:101680009A4206D283689BB28C68002CEFD0A3529A
:10169000EDE75DF8044B704770477047C36813F07F
:1016A000040F1AD0CB680A69934215D210B40AE02D
:1016B000CB680133CB60C36813F0040F09D0CB684B
:1016C0000A69934205D284688A68002AF0D0D4540B
:1016D000EEE75DF8044B704770477047034B984244
:1016E00001D083207047A520704700BF00500C40F8
:1016F000044B984202D040F2022070474FF4F17040
:10170000704700BF00500C40036823F47F43090278
:1017100089B2194301600261704738B504460D462D
:10172000E36813F0040F01D0A368F9E703232362F1
:10173000236813F0080F08D122E0A36913F0010F0A
:1017400039D129462046FFF788FFEA682B699A427B
:1017500002D36A68934226D9E26812F0020FECD0F5
:101760006A689A42E9D229462046FFF75DFFE4E71E
:10177000A36913F0010F20D129462046FFF78EFF01
:10178000EA682B699A4202D36A6893420BD9E268ED
:1017900012F0020FECD06A689A42E9D2294620463C
:1017A000FFF74FFFE4E72B680BB1686804E0AB6814
:1017B0002BB1E86800E0002038BD0020FCE70020E5
:1017C000FAE770B506460D46FFF792FF00F02EFCD3
:1017D00002224FF0FF33002100E02146AB420BD93B
:1017E0004C1C02FB04F3B0FBF3F39D42F6D2FF2C3A
:1017F000F3D902320021F1E73046FFF785FF70BDD3
:1018000010B50446FFF76AFF00F0F6FB2046FFF72D
:101810006FFF00F0F1FB636823F00403636023684B
:1018200023F0FF0343F00703236002492046FFF73C
:10183000C8FF10BDA0860100012909D1C0EBC0007E
:101840008200044B13441A69137DDBB2042BFBD0D6
:10185000704700BF3800001070B50546064EC40042
:10186000221A93003344988800F0C6FB641BA3003F
:10187000F3586C229A6170BD380000102DE9F041D8
:101880000C460B4EC5002B1A4FEA830806EB0803E3
:10189000988800F0CBFBB0FBF4F056F80830420813
:1018A0001A6156F808301A69801A5861BDE8F0814B
:1018B0003800001070B58AB005460E4614464CF24A
:1018C00050330993062818D000230122294604200A
:1018D00000F02EFB4A4A536C43F0010353648DF829
:1018E000085001A9304600F09BFA464B9E4216D99B
:1018F000019B13F0400F03D0FEE700F0F3F9E3E79C
:1019000013F0800F05D023F08003019300250126FA
:1019100007E0049B013304930125002601E0002524
:101920002E469DF80820019B43EA0263059A43EA8C
:101930000243039A43EA0233049A43EA022343F43C
:1019400000632F4A53642E4B1B6C13F0010FFAD027
:10195000002301220921042000F0EAFA06B34CF228
:1019600050330993099B5A1E0992002BFAD1019B0F
:1019700043F0800301939DF8082043EA0263059A2F
:1019800043EA0243039A43EA0233049A43EA0223F6
:1019900043F400631A4A5364002C2ED10AB070BD80
:1019A000002DF9D04CF250330993099B5A1E09922D
:1019B000002BFAD1049B5A1E04929DF80810019B3B
:1019C00043EA0163059943EA0143039943EA01337A
:1019D00043EA022343F40063094A5364DCE70A48FC
:1019E00000EB8401CB788A78497810F8240000F065
:1019F0009FFA0134112CF2D9D0E70024FAE700BF96
:101A00000000054080778E061C7C001A7047FFFF9F
:101A1000034B984201D0032070470420704700BF59
:101A200000400E4070B50D4614461E46FFF7F0FF0D
:101A300000F0FCFA55B104FB06F404EB400064002E
:101A4000B0FBF4F0C0B20138C0B270BD04EB840347
:101A500004EB4304F1E7FFFF38B505460C46FFF7FA
:101A6000D7FF01231A46194600F0A8FA0021E960C1
:101A7000084A2260217161710B232846FFF7D2FFCB
:101A8000000240F400132079400400F46020184361
:101A9000286038BD801A060070B505460E460468F9
:101AA00024F46F2424F470640A600B79C3F10B03EF
:101AB000DBB24979FFF7B6FF44EA002033795B04D3
:101AC00003F4602303432B6070BD08B50A710A68F4
:101AD000FFF7E2FF08BDFFFF08B5692000F0A6FA96
:101AE000014B186008BD00BFC40A0010F0B40B68B9
:101AF00013F0800F02D023F040030B60074601254E
:101B00003AE04B6903FB02F3B3FBF5F31CE01C4620
:101B1000B0EB040C27D4674506D98D60771CCF60E5
:101B20000A618C61CB6167460132B2F5807F1DDCB2
:101B30000C6814F0400FE4D0731C02FA03FC4B69EC
:101B400003FB0CF3B3FBF5F3DFF838C06345EBD9C7
:101B5000DFF834C0634509D814F0800FD7D1741C66
:101B600023FA04F4D4E7CCF1000CD4E70136032EB9
:101B700001DC0122D9E70135042D01DC0026F6E75E
:101B8000F0BC7047FF5E4C0900D01213F0B599B05D
:101B900005460C465C22002101A802F01FF98023B3
:101BA00000936369059323798DF8043069462846CC
:101BB000FFF79CFF069BAB4227D0EB1A2ED41E46A4
:101BC000109B23F0400310936369159323798DF8DC
:101BD000443010A92846FFF789FF169BAB421FD05F
:101BE000EB1A25D41F462B4B9D4223D90E9BED1A91
:101BF00033D4AE423BDCBE4231DC6D460FCD0FC468
:101C000095E80F0084E80F0006E06D460FCD0FC485
:101C100095E80F0084E80F0019B0F0BD5B42CEE7F5
:101C200010AD0FCD0FC495E80F0084E80F00F3E767
:101C30005B42D7E74023089363690D9308A92846C0
:101C4000FFF754FF0E9BAB42D0D108AD0FCD0FC4B0
:101C500095E80F0084E80F00DEE76D42C9E710AD9C
:101C60000FCD0FC495E80F0084E80F00D4E7AF4212
:101C700007DB08AD0FCD0FC495E80F0084E80F0017
:101C8000CAE710AD0FCD0FC495E80F0084E80F0030
:101C9000C2E700BF80778E0630B4054600231C20C3
:101CA00000E001331C2818D103EB430251000C4A19
:101CB0000A441479844210D003EB43014A000849D6
:101CC0008A5AAA42EDD803EB43025100044A0A445F
:101CD0005288AA42E5D32046E4E730BC704700BFF3
:101CE000707C001A82B04FF47A7301930D4A9369A5
:101CF00023F0020192698A4201D00A4A916123F0DD
:101D00000303094A1168094A914201D943F00403C7
:101D1000044A9361019B5A1E0192002BFAD102B032
:101D2000704700BF00000540187C001AFF2C3101ED
:101D30001230054B53F8200010F0010F02D1C0F310
:101D400004607047112070470000054000F1120246
:101D5000034B53F82220034B185C00EA92007047B3
:101D600000000540687C001A08B510280AD8DFE892
:101D700000F0440B0D18210924272A2D09093034BD
:101D8000383C400000203AE01E4838E01E4BD3F8B3
:101D90002C3103F00703042B01D01C482FE0002056
:101DA0002DE0194BD3F82C3103F00703042B27D077
:101DB000164824E0164B186821E0164B18681EE000
:101DC000154B18681BE0144B586818E000F068F8D1
:101DD00015E0002100F09AF811E0012100F096F8DA
:101DE0000DE0022100F092F809E0032100F08EF8E6
:101DF00005E0042100F08AF801E04FF4004008BD3E
:101E00000648FCE7001BB7000030044040787D0125
:101E1000EC7B001A187C001A700A001080F0FA029D
:101E200038B505460C460879FFF79EFF6061194BEF
:101E30002B44194A934221D818B3802323600023EE
:101E4000A360E360B5FBF0F32361144A954203D924
:101E500003FB00F0A84207D021462846FFF796FE74
:101E6000A3688BB1013BA360236983B1E2680AB127
:101E7000013AE260013B2361002038BD4FF0FF30A2
:101E8000FBE74FF0FF30F8E74FF0FF30F5E74FF09A
:101E9000FF30F2E7103A6BFF1005940BFF5E4C0920
:101EA00030B583B0174D6C6CC4F30360FFF75CFF73
:101EB000154B1B6801932B6C13F0010F20D0C4F35A
:101EC0000743C4F30132C4F30121C4F38015013385
:101ED00001320DF1080C614411F8041C14F0800F5C
:101EE00008D13DB94900B3FBF1F3B0FBF2F000FBC0
:101EF00003F003E0B0FBF2F003FB00F003B030BDF1
:101F00000020FBE700000540647C001A38B50C4651
:101F10000846FFF70DFF05462046FFF717FF04466A
:101F20002846FFF721FF0134B0FBF4F038BDFFFF76
:101F300030B400F11604A40004F1804404F5A02498
:101F400064681B2813D811291AD00E4D25400AB1F8
:101F500045F400650BB145F0010545EA0165163011
:101F6000800000F1804000F5A020456008E044F0CA
:101F700001041630800000F1804000F5A02044608C
:101F800030BC7047FEF7FFE01B280CD816308000ED
:101F900000F1804000F5A020406810F0010F04D14E
:101FA000C0F304607047112070471120704708B5D6
:101FB000FFF7EAFFFFF7D8FE08BDFFFF71B9012167
:101FC0000AB141F00401022B0AD0B0F5A17F0AD377
:101FD000A0F59170064B43F8301070470321EFE7EE
:101FE00041F02001F1E72030024B43F830107047F8
:101FF0000020054000100540B0F5A17F09D3094A33
:10200000A0F5917052F8303043F0010342F83030BF
:102010007047054A203052F8303043F0010342F84F
:1020200030307047002005400010054010B5B0F575
:10203000A17F09D3A0F591730D4A52F8334014F0F3
:10204000010F07D1002010BD00F12003094A52F80A
:102050003340F4E7FFF720FEFFF7A9FF14F0E00F8D
:1020600003D10123B0FBF3F0EDE70223FAE700BF51
:102070000020054000100540094B984209D003F5A7
:102080008053984207D0A3F58023984205D00020C2
:10209000704702207047032070470120704700BF3F
:1020A00000100C4030B583B00446FFF7E5FF012374
:1020B0001A4619460E4D35F81000FFF77FFF07232B
:1020C000A3600023E3656360E3602362E364636508
:1020D0002365084B9C4206D00323E3601023A362D0
:1020E000019B03B030BD00232361A3690193F3E793
:1020F000E47C001A0020084038B505460C46FFF77E
:10210000BBFF0C4B33F81000FFF790FF2301B0FB2F
:10211000F3F3D9B2EA6842F08002EA602960C3F3BF
:1021200007226A60EA6822F08002EA60B0FBF3F0FE
:10213000000938BDDC7C001A2DE9F04F83B0019016
:102140008846FFF799FF324B33F81000FFF76EFF18
:1021500006464FF0FF3701244FF0000BA246D94648
:102160002AE042424B1C17E00AB31746AB46A24690
:1021700099460135AC421ED933093007A4FB000152
:1021800004FB0311621908FB02F2002300F0E4FFD4
:1021900002460B460028E4DB9742EAD3002BE8D046
:1021A000190CE6D1022BDFD8002DDDD0E1E7174670
:1021B000AB46A246994601341FB10F2C01D8002529
:1021C000D8E7B9F1000F1ED0019A1146D36843F049
:1021D0008003D3605FFA89F31360C9F30723536068
:1021E000D36823F08003D3604FEA0A13DBB20BF00D
:1021F0000F0213438B6233090AFB03F3DA4409FB32
:102200000AF9B3FBF9F9484603B0BDE8F08F00BF07
:10221000DC7C001A08B50B4A0B4B9A6003F50C7373
:102220001B6903F47F63202B04D0FFF721F9FFF72C
:10223000DFF908BD044AD2F8883043F47003C2F8CD
:102240008830F2E70000001A00ED00E0044B18604F
:10225000044A136843F0010313600120704700BF74
:1022600070000010001000E030B40B4D00EB800057
:102270002C182856087094F90110117094F9022056
:102280001A7094F90320029B1A7094F90420039B9E
:102290001A7030BC704700BFEC7C001A10F1020FBE
:1022A00000F0C780B0F1FF3F00F0C58070B584B08A
:1022B0000C4600238DF80F308DF80E308DF80D3060
:1022C0008DF80C308DF80B300DF10B03019303AB3F
:1022D00000930DF10D030DF10E020DF10F01FFF74B
:1022E000C3FF052C00F2A980DFE804F0810927452F
:1022F00063035348FFF78AFB012004B070BD9DF8CB
:102300000F109DF80E309DF80D2042F0D00203EB27
:1023100041134C4941F823209DF80C309DF90B20C6
:10232000012000FA02F1464C03F5006354F8232023
:1023300022EA010244F82320DFE79DF80F109DF800
:102340000E309DF80D2042F0C00203EB41133D49D1
:1023500041F823209DF80C309DF90B20012000FA54
:1023600002F1374C03F5006354F8232022EA0102FE
:1023700044F82320C1E79DF80F109DF80E309DF81A
:102380000D2042F0D80203EB41132E4941F82320DF
:102390009DF80C309DF90B20012000FA02F1284C29
:1023A00003F5006354F8232022EA010244F82320B5
:1023B000A3E79DF80F109DF80E309DF80D2042F018
:1023C000C80203EB41131F4941F823209DF80C304C
:1023D0009DF90B20012000FA02F1194C03F500636E
:1023E00054F8232022EA010244F8232085E79DF8CF
:1023F0000F109DF80E309DF80D2042F0D00203EB37
:102400004113104941F823209DF80C409DF90B2001
:10241000012000FA02F10A4B04F5006553F825602B
:10242000314343F82510D2B203EB441300219954F1
:1024300063E7002070470020704700205DE700BF81
:1024400000400F400060084010F1020F2DD0B0F1A5
:10245000FF3F2CD010B584B00C4600238DF80F3010
:102460008DF80E308DF80D308DF80C308DF80B3066
:102470000DF10B03019303AB00930DF10D030DF16F
:102480000E020DF10F01FFF7EFFE9DF80C309DF8E5
:102490000B20211C18BF01215B0103F1402303F530
:1024A00070239954012004B010BD00207047002013
:1024B000704710F1020F2CD0B0F1FF3F2BD000B5C8
:1024C00085B000238DF80F308DF80E308DF80D306B
:1024D0008DF80C308DF80B300DF10B03019303AB2D
:1024E00000930DF10D030DF10E020DF10F01FFF739
:1024F000BBFE9DF90C309DF80B205B0103F14023DE
:1025000003F57023985C003018BF012005B05DF81A
:1025100004FB0120704700207047FFFF014BD3E907
:1025200000017047800A001018B1044B07221A609E
:102530007047024B00221A60704700BF10E000E0B5
:1025400038B550EA01042AD010F1FF3241F1FF33CF
:10255000002B08BF322A27D2144BC3E90001144BC9
:102560001B68A3FB004503FB01554FF47A7200235F
:102570002046294600F0F0FD0138B0F1807F09D2F5
:102580000C4B58600C4AE02182F8231000229A601C
:1025900007221A600120FFF7C7FF012038BD002085
:1025A000FFF7C2FF0020F9E70020F7E778000010EE
:1025B000C40A001010E000E000ED00E008B5074A92
:1025C00013685168013341F1000113605160044BFD
:1025D0001B6813B1034A1068984708BD800A0010B1
:1025E000880A0010780A001008B10020704770B502
:1025F0000E4C0026C4F89067C523C4F88C30052320
:10260000C4F890300A4D2846FFF7FAF86B6843F09B
:1026100002036B60C4F80463064942F20C028B5853
:1026200043F001038B50012070BD00BF00600840E3
:1026300000500C4000400F4000B587B000230193CC
:10264000029303910493059218B1002007B05DF83E
:1026500004FB01A90248FFF760F80120F6E700BF7C
:1026600000500C4000B587B0019100230293039302
:102670000493059218B1002007B05DF804FB01A98E
:102680000248FFF74AF80120F6E700BF00500C406F
:1026900000EB40008300034AD358586900F0200043
:1026A000704700BFD47D001A00EB40008300024A4F
:1026B000D3581960704700BFD47D001A2DE9F84344
:1026C00080468946194C45002A189300E618E758B9
:1026D0003846FFF7E7FC49463846FFF70DFD07236C
:1026E000BB603B680123FB6530797379B27942F0B6
:1026F00018020F4903EB401341F82320F079337A95
:10270000727A42F0D00203EB401341F82320B8F173
:10271000010F01D0BDE8F883064AD36C43F03003C3
:10272000D3641A22C1F80823F4E700BFD47D001A4D
:10273000006008400010084038B504460D462046A9
:10274000FFF7A6FF0028FAD029462046FFF7ACFF86
:1027500038BD38B505460C46217821B12846FFF72B
:10276000EBFF0134F8E738BD08B5044B1B681B6864
:10277000DB68034A1068984708BD00BFC80A00100C
:102780008C0A001008B5FFF7A7F91A4B1868FFF775
:102790005DFD01200021FFF7D3FE05210020FFF79A
:1027A0007DFD01212420FFF779FD01212520FFF780
:1027B00075FD01212620FFF771FD01212720FFF77C
:1027C0006DFD00212820FFF769FD00212920FFF77A
:1027D00065FD00212A20FFF761FD00212B20FFF776
:1027E0005DFD00212C20FFF759FD00212D20FFF772
:1027F00055FD08BDC40A00102DE9F84380468946FE
:10280000FFF78CFE06460F46FFF788FE841B61EB40
:102810000705064BD3E900234046494600F09CFCDF
:102820008D4208BF8442EFD3BDE8F88378000010E2
:1028300081F0004102E000BF83F0004330B54FEA71
:1028400041044FEA430594EA050F08BF90EA020FDE
:102850001FBF54EA000C55EA020C7FEA645C7FEA71
:10286000655C00F0E2804FEA5454D4EB5555B8BF94
:102870006D420CDD2C4480EA020281EA030382EA05
:10288000000083EA010180EA020281EA0303362D97
:1028900088BF30BD11F0004F4FEA01314FF4801C6A
:1028A0004CEA113102D0404261EB410113F0004F7C
:1028B0004FEA03334CEA133302D0524263EB430333
:1028C00094EA050F00F0A780A4F10104D5F1200ED1
:1028D0000DDB02FA0EFC22FA05F2801841F100012C
:1028E00003FA0EF2801843FA05F359410EE0A5F100
:1028F00020050EF1200E012A03FA0EFC28BF4CF031
:10290000020C43FA05F3C01851EBE37101F00045E6
:1029100007D54FF0000EDCF1000C7EEB00006EEBF3
:102920000101B1F5801F1BD3B1F5001F0CD349087D
:102930005FEA30004FEA3C0C04F101044FEA4452D4
:1029400012F5800F80F09A80BCF1004F08BF5FEA5B
:10295000500C50F1000041EB045141EA050130BD3B
:102960005FEA4C0C404141EB010111F4801FA4F1DE
:102970000104E9D191F0000F04BF01460020B1FA33
:1029800081F308BF2033A3F10B03B3F120020CDA6B
:102990000C3208DD02F1140CC2F10C0201FA0CF049
:1029A00021FA02F10CE002F11402D8BFC2F1200CAE
:1029B00001FA02F120FA0CFCDCBF41EA0C01904064
:1029C000E41AA2BF01EB0451294330BD6FEA0404AD
:1029D0001F3C1CDA0C340EDC04F11404C4F1200298
:1029E00020FA04F001FA02F340EA030021FA04F3AA
:1029F00045EA030130BDC4F10C04C4F1200220FA01
:102A000002F001FA04F340EA0300294630BD21FA3E
:102A100004F0294630BD94F0000F83F4801306BF04
:102A200081F480110134013D4EE77FEA645C18BFF8
:102A30007FEA655C29D094EA050F08BF90EA020F8F
:102A400005D054EA000C04BF1946104630BD91EA87
:102A5000030F1EBF0021002030BD5FEA545C05D18A
:102A60004000494128BF41F0004130BD14F58004C9
:102A70003CBF01F5801130BD01F0004545F0FE413D
:102A800041F470014FF0000030BD7FEA645C1ABF72
:102A9000194610467FEA655C1CBF0B46024650EAA9
:102AA000013406BF52EA033591EA030F41F40021D5
:102AB00030BD00BF90F0000F04BF0021704730B55B
:102AC0004FF4806404F132044FF000054FF0000130
:102AD00050E700BF90F0000F04BF0021704730B5F1
:102AE0004FF4806404F1320410F0004548BF4042C6
:102AF0004FF000013EE700BF42004FEAE2014FEA1B
:102B000031014FEA02701FBF12F07F4393F07F4FF5
:102B100081F06051704732F07F4208BF704793F0F8
:102B20007F4F04BF41F40021704730B54FF460740B
:102B300001F0004521F000411CE700BF50EA01020E
:102B400008BF704730B54FF000050AE050EA0102B7
:102B500008BF704730B511F0004502D5404261EB27
:102B600041014FF4806404F132045FEA915C3FF468
:102B7000D8AE4FF003025FEADC0C18BF03325FEA05
:102B8000DC0C18BF033202EBDC02C2F1200300FAB6
:102B900003FC20FA02F001FA03FE40EA0E0021FADB
:102BA00002F11444BDE600BF70B54FF0FF0C4CF4C9
:102BB000E06C1CEA11541DBF1CEA135594EA0C0F7B
:102BC00095EA0C0F00F0DEF82C4481EA030621EAB6
:102BD0004C5123EA4C5350EA013518BF52EA0335F1
:102BE00041F4801143F4801338D0A0FB02CE4FF0A3
:102BF0000005E1FB02E506F00042E0FB03E54FF0D3
:102C00000006E1FB03569CF0000F18BF4EF0010ECA
:102C1000A4F1FF04B6F5007F64F5407404D25FEAC6
:102C20004E0E6D4146EB060642EAC62141EA555179
:102C30004FEAC52040EA5E504FEACE2EB4F1FD0CBB
:102C400088BFBCF5E06F1ED8BEF1004F08BF5FEA39
:102C5000500E50F1000041EB045170BD06F00046EB
:102C600046EA010140EA020081EA0301B4EB5C0498
:102C7000C2BFD4EB0C0541EA045170BD41F4801190
:102C80004FF0000E013C00F3AB8014F1360FDEBFB5
:102C9000002001F0004170BDC4F10004203C35DA91
:102CA0000C341BDC04F11404C4F1200500FA05F314
:102CB00020FA04F001FA05F240EA020001F00042B5
:102CC00021F0004110EBD37021FA04F642EB06012B
:102CD0005EEA430E08BF20EAD37070BDC4F10C0455
:102CE000C4F1200500FA04F320FA05F001FA04F219
:102CF00040EA020001F0004110EBD37041F1000105
:102D00005EEA430E08BF20EAD37070BDC4F120050F
:102D100000FA05F24EEA020E20FA04F301FA05F277
:102D200043EA020321FA04F001F0004121FA04F21F
:102D300020EA020000EBD3705EEA430E08BF20EAEF
:102D4000D37070BD94F0000F0FD101F00046400029
:102D500041EB010111F4801F08BF013CF7D041EAAB
:102D6000060195F0000F18BF704703F000465200AF
:102D700043EB030313F4801F08BF013DF7D043EA80
:102D80000603704794EA0C0F0CEA135518BF95EA36
:102D90000C0F0CD050EA410618BF52EA4306D1D1BD
:102DA00081EA030101F000414FF0000070BD50EADC
:102DB000410606BF1046194652EA430619D094EA66
:102DC0000C0F02D150EA013613D195EA0C0F05D150
:102DD00052EA03361CBF104619460AD181EA0301A4
:102DE00001F0004141F0FE4141F470014FF000005C
:102DF00070BD41F0FE4141F4780170BD70B54FF0F7
:102E0000FF0C4CF4E06C1CEA11541DBF1CEA135576
:102E100094EA0C0F95EA0C0F00F0A7F8A4EB050458
:102E200081EA030E52EA03354FEA013100F088804F
:102E30004FEA03334FF0805545EA131343EA126318
:102E40004FEA022245EA111545EA10654FEA0026CD
:102E50000EF000419D4208BF964244F1FD0404F586
:102E6000407402D25B084FEA3202B61A65EB0305E2
:102E70005B084FEA32024FF480104FF4002CB6EB9F
:102E8000020E75EB030E22BFB61A754640EA0C001F
:102E90005B084FEA3202B6EB020E75EB030E22BF5F
:102EA000B61A754640EA5C005B084FEA3202B6EBA0
:102EB000020E75EB030E22BFB61A754640EA9C005F
:102EC0005B084FEA3202B6EB020E75EB030E22BF2F
:102ED000B61A754640EADC0055EA060E18D04FEAED
:102EE000051545EA16754FEA06164FEAC30343EA8D
:102EF00052734FEAC2025FEA1C1CC0D111F4801F5A
:102F00000BD141EA00014FF000004FF0004CB6E752
:102F100011F4801F04BF01430020B4F1FD0C88BFF1
:102F2000BCF5E06F3FF6AFAEB5EB030C04BFB6EBFC
:102F3000020C5FEA500C50F1000041EB045170BDEF
:102F40000EF0004E4EEA113114EB5C04C2BFD4EB1C
:102F50000C0541EA045170BD41F480114FF0000EA0
:102F6000013C90E645EA060E8DE60CEA135594EA1C
:102F70000C0F08BF95EA0C0F3FF43BAF94EA0C0F1F
:102F80000AD150EA01347FF434AF95EA0C0F7FF494
:102F900025AF104619462CE795EA0C0F06D152EAE8
:102FA00003353FF4FDAE1046194622E750EA4106CC
:102FB00018BF52EA43067FF4C5AE50EA41047FF4DD
:102FC0000DAF52EA43057FF4EBAE12E74FF0FF3C42
:102FD00006E000BF4FF0010C02E000BF4FF0010C13
:102FE0004DF804CD4FEA410C7FEA6C5C4FEA430C8C
:102FF00018BF7FEA6C5C1BD001B050EA410C0CBFDB
:1030000052EA430C91EA030F02BF90EA020F00203C
:10301000704710F1000F91EA030F58BF994208BFA3
:1030200090422CBFD8176FEAE37040F00100704760
:103030004FEA410C7FEA6C5C02D150EA013C07D1B7
:103040004FEA430C7FEA6C5CD6D152EA033CD3D002
:103050005DF8040B704700BF8446104662468C46FC
:103060001946634600E000BF01B5FFF7B7FF00282F
:1030700048BF10F1000F01BD4DF808EDFFF7F4FF58
:103080000CBF012000205DF808FB00BF4DF808EDE3
:10309000FFF7EAFF34BF012000205DF808FB00BF06
:1030A0004DF808EDFFF7E0FF94BF012000205DF828
:1030B00008FB00BF4DF808EDFFF7CEFF94BF0120DD
:1030C00000205DF808FB00BF4DF808EDFFF7C4FFD6
:1030D00034BF012000205DF808FB00BF4FEA410C1F
:1030E0007FEA6C5C02D150EA013C0AD14FEA430C02
:1030F0007FEA6C5C02D152EA033C02D14FF000003F
:1031000070474FF0010070474FEA410212F500127C
:1031100015D211D56FF47873B3EB625212D94FEA1E
:10312000C12343F0004343EA505311F0004F23FA08
:1031300002F018BF404270474FF00000704750EA5D
:10314000013005D111F0004008BF6FF0004070471A
:103150004FF00000704700BF53B94AB9002908BFBB
:1031600000281CBF4FF0FF314FF0FF3000F074B962
:10317000ADF1080C6DE904CE00F006F8DDF804E0CE
:10318000DDE9022304B070472DE9F047089E0446AC
:103190008846002B40F085808A42154648D9B2FA0D
:1031A00082F24AB1C2F1200701FA02F320FA07F7CE
:1031B000954047EA030894404FEA154E230CB8FBAC
:1031C000FEF71FFA85FC0EFB178843EA084307FB4E
:1031D0000CF1994209D9EB1807F1FF3080F0E38038
:1031E000994240F2E080023F2B445B1AA4B2B3FB49
:1031F000FEF00EFB103344EA034400FB0CFCA44534
:1032000009D92C1900F1FF3380F0CB80A44540F29E
:10321000C88002382C4440EA0740A4EB0C04002785
:103220001EB1D4400023C6E900433946BDE8F0870B
:10323000002A53D0B2FA82F2002A40F0B680491B2D
:103240004FEA154E1FFA85F80127B1FBFEFC230C4F
:103250000EFB1C1143EA014308FB0CF1994207D90C
:10326000EB180CF1FF3002D2994200F2EC80844658
:10327000591AA3B2B1FBFEF00EFB101443EA04444A
:1032800008FB00F8A04507D92C1900F1FF3302D242
:10329000A04500F2DC801846A4EB080440EA0C408C
:1032A000BEE78B4208D9002E78D00027C6E900017E
:1032B00038463946BDE8F087B3FA83F77FB98B42C9
:1032C00002D3824200F2BD80841A61EB0303012025
:1032D0009846002EA9D0C6E90048A6E7FFDEC7F150
:1032E0002005BB4022FA05FC4CEA030C01FA07F466
:1032F00020FA05F821FA05F34FEA1C4E48EA0404C7
:10330000B3FBFEF9210C0EFB19331FFA8CF841EACE
:10331000034309FB08FA9A4502FA07F200FA07F19B
:103320000BD91CEB030309F1FF3080F088809A452C
:1033300040F28580A9F102096344A3EB0A03A4B219
:10334000B3FBFEF00EFB103344EA034400FB08F825
:10335000A04508D91CEB040400F1FF336BD2A04553
:1033600069D90238644440EA0940A4EB0804A0FB90
:1033700002894C45C6464B4654D351D0002E69D0E5
:10338000B1EB0E0264EB030404FA05F522FA07F32D
:10339000FC401D43C6E90054002746E73746304647
:1033A00043E7184637E707461FE7C2F1200320FA34
:1033B00003F7954001FA02F021FA03F34FEA154EA4
:1033C0003843010CB3FBFEF71FFA85F80EFB1733E9
:1033D00041EA034107FB08F38B4204FA02F407D9E0
:1033E000691807F1FF3C28D28B4226D9023F2944B5
:1033F000CB1A81B2B3FBFEF00EFB103341EA03415E
:1034000000FB08F38B4207D9691800F1FF3C10D28A
:103410008B420ED902382944C91A40EA074714E7FB
:103420004145ABD2B8EB020E69EB0C0201381346F2
:10343000A4E76046F0E7184695E76746D8E7814677
:103440007BE7384645E7ACF1020C2B4410E7023825
:103450002C4421E73746E8E6704700BFF8B5244F13
:103460000C46064600F00AFDBB685D68C4F57E6147
:103470000F3125F00305294421F47F6121F00F016C
:10348000A1F58054B4F5805F07DB00213046FDF7DD
:103490008DFFBB682B44984204D0304600F0F4FC0A
:1034A0000020F8BD61423046FDF780FF01300DD0AD
:1034B000104BBA6819682D1B45F001053046091BF1
:1034C0005560196000F0E0FC0120F8BD0021304695
:1034D000FDF76CFFBA68831A0F2BDEDD064C054939
:1034E000246843F00103001B53600860D5E700BF68
:1034F000B0040010900A0010B808001000295DD038
:10350000F8B50F46064600F0B9FC57F804CC734CEA
:103510002CF00103A7F10800C218A1685568914278
:1035200025F003057FD01CF0010F556002EB05016B
:1035300033D157F808EC4968A0EB0E0004F1080CF1
:1035400087686745734401F0010160D0D0F80CE052
:10355000C7F80CE0CEF80870002900F0898043F02D
:10356000010141601360B3F5007F30D2DB08591CC4
:1035700065689A10012393402B4304EBC10254F871
:1035800031506360083AC0E9025244F83100E86003
:103590003046BDE8F84000F077BC4968C9070ED452
:1035A0002B4404F1080C9168614543F0010567D094
:1035B000D268CA6091604560C350D4E7704743F059
:1035C0000101B3F5007F47F8041C1360CED35A0AFB
:1035D000042A42D89A0902F13907FF0002F13801A2
:1035E000E519E259083D954251D0516821F0030197
:1035F000994202D992689542F7D1D568C0E902256F
:10360000A860D0603046BDE8F84000F03DBC00291D
:103610005ED1D2E902122B4443F00104CA609160EA
:103620004460C350B4E71CF0010F2B4407D157F896
:10363000082C801A1344D0E90212CA609160284A0B
:10364000126843F001019A424160A060A0D8254B66
:1036500030461968FFF702FF9AE7142A0AD9542A5C
:103660001DD81A0B02F16F07FF0002F16E01B7E7D8
:103670002B4498E702F15C07FF0002F15B01AFE722
:10368000C4E90400C0E902CC4560C35080E7636828
:103690008910012707FA01F119436160AEE7B2F51D
:1036A000AA7F06D8DA0B02F17807FF0002F1770152
:1036B00096E740F254518A4206D89A0C02F17D07EF
:1036C000FF0002F17C018BE74FF47E777E2187E7D4
:1036D00043F00101416013605AE700BFB0040010DD
:1036E000BC080010C00A001070B50D4E0D4D761BC1
:1036F000B61006D00024013455F8043B9847A64282
:10370000F9D1094E094D761BFDF74FFEB61006D0D4
:103710000024013455F8043B9847A642F9D170BD06
:10372000A480001AA480001AA880001AA480001A9D
:10373000704700BF704700BF2DE9F04F01F10B0546
:10374000162D83B0064623D8102900F2B98000F068
:1037500095FB102518230220BA4F3B44A3F1080221
:103760005C68944200F0B980636823F0030323444B
:10377000D4E902515A68E96042F0010230468D6096
:103780005A6000F081FB0834204603B0BDE8F08F9A
:1037900035F0070500F19480A94200F2918000F015
:1037A0006DFBB5F5FC7FC0F0A2816B0A00F08F8045
:1037B000042B00F27881AB0903F1390003F1380CD6
:1037C000C300A04F3B44A3F108015C68A14206D1AD
:1037D0000CE0002A80F22781E468A14206D06368E9
:1037E00023F003035A1B0F2AF3DD60463C69DFF820
:1037F00068C264457CD0636823F003035A1B0F2A18
:1038000000F38381002AC7E904CC80F27481B3F508
:10381000007F80F02581DB08591C7A6857F83180D9
:10382000C4F808804FF0010E9B100EFA03F307EB6B
:10383000C10E1343AEF10802E2607B6047F83140ED
:10384000C8F80C408210012494409C4256D81C4277
:1038500006D120F0030064001C4200F10400FAD0FD
:1038600007EBC009CE468046DEF80C309E4507D1F6
:1038700025E1002A80F22C81DB689E4500F01F8143
:10388000596821F003014A1B0F2AF2DDD3E9028EA9
:103890005C1945F001055D6042F00105C8F80CE0D7
:1038A0003046CEF80880C7E90444C4E902CC65601C
:1038B0005A50009300F0E8FA009B03F1080402E07C
:1038C0000C2333600024204603B0BDE8F08F4FF492
:1038D000007340204FF03F0C73E7DC68A34208BF41
:1038E00002307FF441AF3C69DFF86CC1644582D19E
:1038F0007B688210012494409C42A8D9BC6863680C
:1039000023F00308A84503D3A8EB05030F2B7ADCAB
:10391000DFF848914C4BD9F800201B6801322B444A
:1039200004EB080A00F03C8103F580530F3323F4C5
:103930007F6B2BF00F0B59463046FDF737FD411CCE
:10394000024600F0FC80824500F2F7803F4B186889
:1039500058441860014600F05781D9F800000193DF
:1039600001301BBFA2EB0A0A5144C9F800201960BC
:1039700012F0070A00F02081CAF108010A44CAF5D2
:10398000805193440831A1EB0B01C1F30B09494667
:1039900030460092FDF70AFD421CDDE9002300F0ED
:1039A0005881801A00EB090B1868BA604BF00101CE
:1039B0004844BC425160186000F03281B8F10F0FEA
:1039C00040F230816168A8F10C0C2CF0070C01F07A
:1039D000010104EB0C0E41EA0C014FF00508BCF1AB
:1039E0000F0F6160CEE9018800F23B8151681446F7
:1039F000174B1A68824238BF1860164B1A68824209
:103A000038BF18609DE0621943F0010345F00105DD
:103A100065603046BA60536000F036FA08342046DC
:103A200003B0BDE8F08F2344E1685A68A56842F00E
:103A30000102E96030468D605A6000F025FA0834D2
:103A400041E700BFB0040010C00A0010900A001047
:103A5000B80A0010BC0A0010B8040010B808001022
:103A60005A0A042A63D9142A00F2B78002F15C01D1
:103A7000C9005B3207EB010E7958AEF1080E8E4596
:103A800000F091804A6822F003029A4202D98968C4
:103A90008E45F7D1D1F80CE07B68C4E9021ECEF860
:103AA0000840CC60CEE6142B59D9542B00F29D80EF
:103AB0002B0B03F16F0003F16E0CC30081E608F1DC
:103AC000010818F0030F0EF1080E7FF4CDAE51E09F
:103AD00019441C464A68DB6854F8085F42F001024A
:103AE0004A603046EB609D6000F0CEF9EBE6E808F6
:103AF00005F1080330E6234430465A6842F00102DB
:103B00005A60083400F0C0F9DDE6611945F0010E95
:103B100042F00105C4F804E03046C7E90411C1E9E8
:103B200002CC4D60E25000F0AFF90834CBE69A09C0
:103B300002F13901C90038329CE7BC425FD0BC6851
:103B4000616821F0030BAB45ABEB050302D30F2BF0
:103B50003FF759AF304600F097F90024B3E603F180
:103B60005C0003F15B0CC3002BE659F808394B45A8
:103B700040F0968010F0030F00F1FF30F5D17B6824
:103B800023EA04037B6064009C423FF6B7AE1CB995
:103B9000B4E6640008F104081C42FAD040465FE62F
:103BA00003F1100BC7E67B6892104FF0010808FA8A
:103BB00002F213437B6070E702EB0B004042C0F35C
:103BC0000B09494630460092FDF7F0FB431CDDE946
:103BD00000237FF4E6AED146E6E6542A25D81A0B38
:103BE00002F16F01C9006E3244E7B3F5AA7F25D810
:103BF000EB0B03F1780003F1770CC300E1E5294BEF
:103C0000196859441960A8E6CAF30B0CBCF1000FFF
:103C10007FF4A3AEC344BC684BF001016160E7E6EA
:103C20001446E5E60123536094E7B2F5AA7F23D852
:103C3000DA0B02F17801C90077321BE740F25452E7
:103C4000934223D8AB0C03F17D0003F17C0CC3003D
:103C5000B7E5AAF1080AD344ABEB020B4FF0000919
:103C6000A2E604F1080130460093FFF747FCBC6868
:103C7000009B61681868BBE640F254518A420BD839
:103C80009A0C02F17D01C9007C32F3E64FF47E7399
:103C90007F204FF07E0C94E54FF47E717E22E9E6A2
:103CA0007B6870E7900A0010844641EA000313F035
:103CB00003036DD1403A41D351F8043B40F8043B33
:103CC00051F8043B40F8043B51F8043B40F8043BF6
:103CD00051F8043B40F8043B51F8043B40F8043BE6
:103CE00051F8043B40F8043B51F8043B40F8043BD6
:103CF00051F8043B40F8043B51F8043B40F8043BC6
:103D000051F8043B40F8043B51F8043B40F8043BB5
:103D100051F8043B40F8043B51F8043B40F8043BA5
:103D200051F8043B40F8043B51F8043B40F8043B95
:103D300051F8043B40F8043B403ABDD2303211D335
:103D400051F8043B40F8043B51F8043B40F8043B75
:103D500051F8043B40F8043B51F8043B40F8043B65
:103D6000103AEDD20C3205D351F8043B40F8043B35
:103D7000043AF9D2043208D0D2071CBF11F8013B33
:103D800000F8013B01D30B8803806046704700BFF9
:103D9000082A13D38B078DD010F003038AD0C3F108
:103DA0000403D21ADB071CBF11F8013B00F8013BEA
:103DB00080D331F8023B20F8023B7BE7043AD9D3A9
:103DC000013A11F8013B00F8013BF9D20B7803707E
:103DD0004B7843708B78837060467047F0B48607E9
:103DE00046D0541E002A3CD0CAB2034602E014F169
:103DF000FF3436D303F8012B9D07F8D1032C29D9C2
:103E0000CDB245EA05250F2C45EA054533D9A4F185
:103E10001006360903F1200707EB061703F110021D
:103E200042E9045542E902551032BA42F8D1721CF7
:103E300014F00C0F03EB021204F00F0613D0331F23
:103E400023F003030433134442F8045B9342FBD191
:103E500006F003042CB1C9B21C4403F8011B9C42B8
:103E6000FBD1F0BC704734461346002CF3D1F8E781
:103E700014460346C2E71A462646E0E70148FFF724
:103E800057BC00BFDC0A00100148FFF753BC00BF5D
:103E9000DC0A00100EB430B59CB01FAB0C4C0D4DBD
:103EA00053F8042B0193014602910691206802A960
:103EB0006FF000440794CDE9044500F091F8029BAF
:103EC00000221A701CB0BDE8304003B0704700BF3C
:103ED000800000100802FFFFFFFFFFFFFFFFFFFF52
:103EE000FFFFFFFFFFFFFFFFFFFFFFFFFFFFFFFFE2
:103EF000FFFFFFFFFFFFFFFFFFFFFFFFFFFFFFFFD2
:103F000090F800F06DE9024520F007016FF0000C19
:103F100010F0070491F820F040F049804FF00004C1
:103F20006FF00700D1E9002391F840F000F108009C
:103F300082FA4CF2A4FA8CF283FA4CF3A2FA8CF3D4
:103F40004BBBD1E9022382FA4CF200F10800A4FA3B
:103F50008CF283FA4CF3A2FA8CF3E3B9D1E904238F
:103F600082FA4CF200F10800A4FA8CF283FA4CF3C6
:103F7000A2FA8CF37BB9D1E9062301F1200182FA80
:103F80004CF200F10800A4FA8CF283FA4CF3A2FA86
:103F90008CF3002BC6D0002A04BF04301A4612BA94
:103FA000B2FA82F2FDE8024500EBD2007047D1E997
:103FB000002304F00305C4F100004FEAC50514F026
:103FC000040F91F840F00CFA05F562EA05021CBFF7
:103FD00063EA050362464FF00004A9E7FFFFFFFF15
:103FE0002DE9F04FD5B00C46079193460993069002
:103FF00002F0D0FC036815931846FFF781FFA389F0
:1040000013901D0603D52369002B01F018800023AF
:104010005E469FED917B1293CDE92933149316935D
:10402000CDE91833179304932BAB28939946337833
:104030008DED107B002B00F07781252B00F0C486DE
:10404000354603E0252B00F0968025466B786C1CE6
:10405000002BF7D1A71B00F06781DDE9293201337E
:104060003A44072BC9F80060C9F80470CDE9293239
:1040700000F3848009F10809049A6B783A440492A9
:10408000002B00F05181002394F8018005938DF8F6
:104090008330029304F1010B4FF0FF3A2B272021CC
:1040A0000BF1010BA8F120035A2B00F26C83DFE81F
:1040B00013F04B036A036A0344036A036A036A0347
:1040C00021036A036A03150210026A03CB00F6019A
:1040D0006A03EF01A800A800A800A800A800A80093
:1040E000A800A800A8006A036A036A036A036A03B7
:1040F0006A036A03DF026A0323029601DF02DF021A
:10410000DF026A036A036A036A038F016A036A03B0
:104110007E016A036A036A0352016A03CA016A03E1
:104120006A03B7006A036A036A036A036A036A03DD
:104130006A036A03DF026A032302D901DF02DF0296
:10414000DF02BF01D9015B006A0347016A031E0158
:104150000C01DB005B006A0352015F0055036A0338
:104160006A0389006A035F00029B43F02003029305
:104170009BF8008094E7A71B85D06EE728AADDE9AD
:10418000060103F0F5F980B90DF1AC0974E728AA2E
:10419000DDE9060103F0ECF9002800F02182089B1C
:1041A0001BB108990698FFF7A9F9079B9B8913F0A3
:1041B000400F049B18BF4FF0FF330493049855B091
:1041C000BDE8F08F264B1493029B99062DD5099CD0
:1041D000073424F00703F3E802450993029AD6074F
:1041E0000AD554EA050307D0302342F002028DF8C5
:1041F000858002928DF88430029B23F4806702232D
:1042000044E0A8F1300300221BF8018B02EB82028C
:1042100003EB4202A8F13003092BF5D9059241E7DF
:10422000104B1493029B9906D1D4099B53F8044B6D
:104230000993029BDA0600F1EF85029B5B0640F1D1
:10424000E785A4B20025C9E79BF80080029B43F0F4
:104250000403029324E700BF0000000000000000F8
:10426000307F001A447F001A099C47F6300254F848
:10427000043BADF88420029A09941C469D4B14938C
:1042800042F00207002502234FF0780800228DF843
:104290008320BAF1FF3F00F09B8227F08002029258
:1042A00054EA050240F09382BAF1000F40F0908486
:1042B000002B40F0B88017F0010700F0A7853023ED
:1042C0008DF84F310DF24F1674E2029FBE0674D482
:1042D000029B099ADD0652F8044B01F19983029F73
:1042E000780641F170800992A4B200256CE0029931
:1042F000099A8C0602F1040300F19185029AD00616
:1043000000F1EE87029A510601F1A680029A920509
:1043100040F1E687099A09931268049B13705E4680
:104320003378002B7FF489AE2A9B002B3FF43DAFFE
:10433000079C069828AA214603F01AF9A38936E7B4
:104340009BF80080029BB8F16C0F00F0638643F08D
:1043500010030293A4E6099C54F8046B00258DF821
:104360008350002E00F07A86BAF1FF3F00F0F98703
:1043700052462946304602F013FB0890002801F00F
:104380005081089BAA469F1BCDE90EAA27EAE77336
:104390009DF8832009940393CDF820A0CDF830A098
:1043A000002A00F0BB80039B01330393B6E0029B1D
:1043B00043F010079B0640F11786099C073424F050
:1043C0000703F3E80245099327F4806700235DE7BC
:1043D000029B9BF8008043F00803029360E6029B77
:1043E0009C0643F0100740F1F185099C073424F046
:1043F00007031946F1E80223099114461D46002AD5
:1044000073F10003C0F2D784BAF1FF3F00F0C78117
:1044100027F08003029354EA050340F0BF81BAF10C
:10442000000F41F03F804FF0000A574654AEC1E103
:104430009BF80080029BB8F1680F00F0E28543F022
:10444000400302932CE6029B9A0643F0100740F1CA
:10445000F184099C073424F00703F3E8024509932B
:10446000012313E7029FB806BFD4099B1A1D029BC4
:10447000D90601F1D082029F3B465B0640F1968748
:10448000099B0992B3F90040E51722462B46B6E78F
:10449000029B9BF8008043F08003029300E65A469B
:1044A00012F8018BB8F12A0F01F08E82A8F13003C7
:1044B000092B93464FF0000A3FF6F4AD1BF8018B31
:1044C0000AEB8A0A03EB4A0AA8F13003092BF5D953
:1044D000E8E58DF883709BF80080E1E5099B9BF887
:1044E000008053F8042B0592002AC0F285850993B9
:1044F000D6E500BF307F001A099C002354F8042B36
:104500008DF8EC2001271A4603970994CDE90E2275
:104510008DF88330089292460C923BAE029B13F0CA
:1045200002030A9302D0039B02330393029B2A9C4B
:1045300013F084030B9304D1059B03995D1A002D9E
:104540005ADC72B1299A013201340DF18300012144
:10455000072ACDE92924C9E9000100F3E98209F11C
:1045600008090A9B6BB1299B0133023421A902225D
:10457000072BCDE92934C9E9001200F3E58209F1DE
:1045800008090B9B802B00F0F881AAEB0705002D92
:1045900000F33682029BDA0500F18581299BC9F878
:1045A000006001333C44072B2A94C9F80470299316
:1045B00000F3B28209F10809029B590705D5059B52
:1045C000039A9D1A002D00F3CB82DDE90432039992
:1045D0008A42ACBF9B185B180493002C7FF4D7ADC4
:1045E00000232993089B1BB108990698FEF786FFC4
:1045F0000DF1AC095E4693E6102D299A29DD20467F
:1046000049461023B1461E97069C079E04E0103DC4
:10461000102D01F1080118DD0132C44F1030072AB6
:10462000CDE92920C1E90073F1DD28AA31462046F1
:1046300002F09EFF00287FF4B2AD103D102DDDE9A1
:1046400029202BA94FF01003E6DC1E9F4E4604469E
:1046500089460132B54B2C44072ACDE92924C9E902
:10466000003500F3C98509F108099DF8832068E742
:10467000099C073424F00703B3EC027B55EC174B7D
:10468000099325F000431B938DED1A7ADDE91A0199
:104690004FF0FF32A64B8DED107BFEF71FFD00287B
:1046A00040F0D1834FF0FF32A14BDDE91A01FEF754
:1046B000F7FC002840F0C78300220023204629464B
:1046C000FEF7E4FC002840F0A0869DF88320994E78
:1046D000994B02980021032720F08000039708914E
:1046E0000290B8F1470FC8BF1E468A460C91CDE92B
:1046F0000E1155E6069D284602F04CF943681793C3
:104700001846FFF7FDFB19900446284602F042F9CF
:10471000836818932021002C3FF42AAD189B9BF846
:104720000080002B3FF4BCAC1B78002B3FF4B8ACEE
:10473000029B43F480630293B2E4029B9BF80080E7
:1047400043F001030293ABE49DF883309BF80080B3
:10475000002B7FF4A5AC8DF88310A1E4029F3B46AB
:104760009B063FF576AE029B099ADE0652F8044B93
:1047700001F14B81029F7D0640F12F860992A4B280
:104780000025012382E5B8F1000F3FF4CDAD0023F1
:1047900001271A4603978DF8EC80B7E6029F002D9B
:1047A00008BF0A2C39D2303402978DF84F410127C7
:1047B0000DF24F160023574508930C93CDE90E33A5
:1047C0003B46B8BF53469DF883200393E8E5029F1C
:1047D000012BE4D0022B00F0028254A900E0314604
:1047E000E20842EA4572E80804F007030546144669
:1047F000303354EA050201F8013C01F1FF36EED1F5
:10480000F8074CD5302B4AD03023023906F8013C4A
:1048100054AB02970E465F1ACCE707F48063002280
:10482000CDF808B0CDF80C80CDF8209054AEB94644
:104830009346DDF860801F4607E0FEF78DFC002DF3
:1048400008BF0A2C20D304460D460A220023204626
:104850002946FEF781FC02F1300C06F801CC204617
:1048600029460A2200230BF1010B013E002FE4D060
:1048700098F800C0E345E0D1BBF1FF0FDDD09D42C9
:1048800008BF944280F06986CDF848B0CDF86080CA
:104890004F46DDF808B0DDF80C80DDF82090029777
:1048A00054AB9F1B86E7B8F1650F40F3E38000220D
:1048B0000023DDE91001FEF7DFFB002800F0A881EE
:1048C000299B1E4AC9F80020013301340122072B1D
:1048D000CDE92934C9F8042000F3D18409F108098D
:1048E000229B129A2A9C934280F28A82299B159AD3
:1048F000C9F80020139AC9F8042001331444072B87
:10490000CDE9293400F38F8309F10809129B5D1E5C
:10491000002D7FF751AE102D299A094B40F3BC842E
:104920001026DDE906789A4612E000BF647F001A7F
:10493000FFFFEF7F207F001A247F001A607F001A9C
:10494000747F001A09F10809103D102D40F3A3846B
:1049500001321034072ACDE92924C9E900A6F1DD86
:1049600028AA4146384602F003FE00287FF417AC1F
:10497000DDE929240DF1AC09E6E7059B039A9D1AB0
:10498000002D7FF702AE102D299A9F4B28DD20467F
:104990000A974946069CB1461F46079E04E0103D13
:1049A000102D01F1080116DD013210301023072A05
:1049B000CDE929200F604B60F1DD28AA3146204661
:1049C00002F0D6FD00287FF4EAAB103D102DDDE9A2
:1049D00029202BA9E8DC3B460A9F4E46044689461F
:1049E00001322C44072ACDE92924C9E9003500F316
:1049F0006A84AAEB0705002D09F108097FF7CAAD03
:104A0000102D299A804B29DD20460A9749464FF000
:104A1000100AB146069C079E1F4604E0103D102D6B
:104A200001F1080115DD01321030072ACDE92920F6
:104A3000C1E9007AF2DD28AA3146204602F098FD4D
:104A400000287FF4ACAB103D102DDDE929202BA907
:104A5000E9DC3B460A9F4E460446894601322C4417
:104A6000072ACDE92924C9E9003500F3978109F126
:104A700008098FE5129A299B012A04F1010403F128
:104A8000010509F1080740F348810123072DC9F802
:104A90000060CDE92954C9F8043000F39881139BD4
:104AA000159A691C1C4407290B91CDE92914C7E903
:104AB000002300F3988108370B9A129D02F1010A36
:104AC00000230022DDE91001CDF828A007F1080934
:104AD00005F1FF38FEF7D0FA002840F031810A9B3B
:104AE000C7F8048001364444072B3E602A9429937A
:104AF00000F367830B9A07F1100302324F460A92C4
:104B00009946169A7A6014440A9A2A9424AB072A82
:104B100029923B607FF750AD28AADDE9060102F03B
:104B200027FD00287FF43BAB2A9C0DF1AC0943E53F
:104B300028AADDE9060102F01BFD00287FF42FAB57
:104B40002A9C0DF1AC090CE528AADDE9060102F06A
:104B50000FFD00287FF423AB2A9C0DF1AC0910E572
:104B6000102D299B20DD1026DDE9067804E0103D9C
:104B7000102D09F1080917DD0133244A1034072BE1
:104B8000CDE92934C9E90026F1DD28AA4146384695
:104B900002F0EEFC00287FF402AB103D102DDDE9A1
:104BA00029340DF1AC09E7DC0133184A2C44072BFA
:104BB000CDE92934C9E900257FF707AD28AADDE949
:104BC000060102F0D5FC00287FF4E9AA2A9CFCE447
:104BD000012B00F06784022B029F7FF4FEAD149836
:104BE00054AE230904F00F0143EA05732A091C4659
:104BF0001546435C06F8013D54EA0503F1D154AB78
:104C000002979F1BD6E500BF747F001A647F001ACD
:104C1000229B002B40F3FF820E9B129A9342A8BF67
:104C20001346002B1D460DDD299BC9F8006001339A
:104C30002C44072B2A94C9F80450299300F380844C
:104C400009F108090E9B002DA8BF5B1B002B1D4618
:104C500000F313820E9B33449A46029B5F0500F1DA
:104C60003382229B129A934203DB029AD50740F1CA
:104C7000DE83299A1599C9F800101399C9F8041010
:104C800001320C44072A2A94299200F37C8409F10A
:104C90000809129AB518A5EB0A05D31A9D42A8BFB8
:104CA0001D46002D0DDD299AC9F800A001322C44C3
:104CB000072A2A94C9F80450299200F3798509F14A
:104CC0000809002DACBF5D1B1D46002D7FF774AC9D
:104CD000102D299AC24B40F3DF821026DDE90678B9
:104CE0009A4605E009F10809103D102D40F3D382E2
:104CF00001321034072ACDE92924C9E900A6F1DDE3
:104D000028AA4146384602F033FC00287FF447AA1F
:104D1000DDE929240DF1AC09E6E7029AD0073FF559
:104D2000B4AE0122072DC9F80060CDE92954C9F8B5
:104D3000042000F3468202330A9309F11009E0E6E9
:104D4000B8F1000F7FF7DDAEB8F1100FA44B40F3C0
:104D500039861A46554623461026DDF81890DDF8A8
:104D60001CA0144607E00837A8F11008B8F1100F8E
:104D700040F3048301351033072DCDE92953C7E9EA
:104D80000046F0DD28AA5146484602F0F1FB002813
:104D90007FF405AADDE929532BAFE5E728AADDE971
:104DA000060102F0E5FB00287FF4F9A92A9C0DF129
:104DB000AC09FFF7EFBB2D2364428DF8833065EB20
:104DC00045050123FFF765BA3446FFF75CB928AA09
:104DD000DDE9060102F0CCFB00287FF4E0A9DDE963
:104DE00029542BAF5BE628AADDE9060102F0C0FBDF
:104DF00000287FF4D4A9DDE929342BAF0B935BE6BF
:104E0000029BDB073FF572ADFFF7D6BB54AED1E492
:104E1000029B9F0500F11C830025FFF7DFB9049971
:104E200012680993CD1708462946C2E900015E467B
:104E3000FFF776BA099B1A1D099B09921C68002589
:104E40000123FFF723BADDE9100102460B46FEF706
:104E500045F9002840F02885B8F1610F00F00D8574
:104E6000B8F1410F00F0E98328F02003BAF1FF3FC9
:104E7000039300F00783472B04D1BAF1000F08BF5A
:104E80004FF0010ADDE910450299002D41F48072CE
:104E9000C0F27684CDE91C4500231E930A91089345
:104EA0000292039B462B00F07C83452B00F0D484B8
:104EB00026AA23ABCDE90032022122AB52469DED5A
:104EC0001C0B069800F03CFE039B472B064640F067
:104ED0008E850A9BDB0700F17B84269FBB1B129308
:104EE000229B0E93039B472B00F0EE82039B462BE5
:104EF00000F0808303990E9B412903F1FF325FFA92
:104F000088F303BF0F33DBB201210021002A8DF8A3
:104F10009030B8BF0E9B2292B6BFC3F101022B2383
:104F20002D23092A8DF8913040F3AE840DF19F04B2
:104F300020462C4D01E008461A4685FB0231D31766
:104F4000C3EBA10303EB8301A2EB41013031632AE0
:104F500000F8011C00F1FF31EDDC3033821EDBB2C2
:104F6000944201F8013C40F245850DF1920201E0C6
:104F700011F8013B02F8013B8C42F9D10DF1A1037C
:104F80000DF192021B1A134424AA9B1A1693129B2A
:104F9000169A012B03EB020740F3EE84139B1F4488
:104FA0000A9B002223F4806343F48073CDE90E2230
:104FB000029327EAE7730C9203931E9B002B40F0A9
:104FC000AA829A469DF88320FFF7EAB9099B1A1D29
:104FD000099B09921C68E51722462B46FFF70FBA7A
:104FE000747F001A67666666099B1A1D099B099201
:104FF0001C680025FFF7E8B9524205920993FFF7B4
:1050000025B943F400739BF8018002930BF1010B67
:10501000FFF746B843F020039BF8018002930BF1A1
:10502000010BFFF73DB828AADDE9060102F0A0FA5E
:1050300000287FF4B4A82A9C0DF1AC0966E4402155
:105040000698FEF779FB079B18601861002800F0AE
:10505000C684079A40235361FEF7D9BF5746062FEF
:1050600028BF0627B2460C96CDE90E660896324652
:1050700003970994BE4EFFF793B9102D299ABD4BA3
:1050800040F3B881194610272346DDE9068A0C460D
:1050900005E009F10809103D102D40F3A881013207
:1050A0001033072ACDE92923C9E90047F1DD28AAF1
:1050B0005146404602F05CFA00287FF470A8DDE912
:1050C00029230DF1AC09E6E7129BCDF82CB0F318BB
:1050D0000A930F9B0E964A465646A64FDDF860800F
:1050E000DDF864A02146DDE906B9002B33D00C9B26
:1050F000002B34D10F9B013B08F1FF380F93299B04
:105100001798106001335144072B2A91C2F804A06C
:10511000299366DC08320A9898F80030851B9D4276
:10512000A8BF1D46002D0CDD299B166001332944C4
:10513000072B2A915560299300F3B88098F8003026
:105140000832002DACBF5D1B1D46002D0BDC1E443C
:105150000F9B002BCBD10C9B002B00F0A6810C9B4E
:10516000013B0C93CBE7102D29981CDD102404E0A3
:10517000103D102D02F1080215DD01301031072815
:10518000CDE92901C2E90074F2DD28AA4946584652
:1051900002F0EEF900287FF402A8103D102DDDE9A1
:1051A00029012BAAE9DC013029440728CDE929018E
:1051B000C2E9007500F3B68198F8003008321E4449
:1051C000C6E728AADDE9060102F0D2F900287EF43C
:1051D000E6AFDDE9293401330A930DF1B4092BAFB1
:1051E0008FE428AA4946584602F0C2F900287EF406
:1051F000D6AF2A992BAA8EE728AADDE9060102F08C
:10520000B7F900287EF4CBAF9DF883202A9C0DF1DE
:10521000AC09FFF796B9299A5749C9F8001001322D
:1052200001340121072ACDE92924C9F8041000F32B
:10523000F18009F10809002B5AD1029B129A03F060
:10524000010313433FF4B8A9299A159BC9F800300C
:10525000139BC9F8043001321C44072A2A9429926E
:1052600000F3028109F10809129B01321C44072A4C
:10527000CDE92924C9E900637FF79CA94CE428AA59
:10528000DDE9060102F074F900287EF488AF0DF123
:10529000AC09FFF725BB534601322C44072ACDE960
:1052A0002924C9E900357FF785A935E428AA4946AC
:1052B000584602F05DF900287EF471AF98F800308E
:1052C0002A992BAA3DE728AADDE9060102F050F948
:1052D00000287EF464AF2A9C0DF1AC09FFF755B9A4
:1052E000099A12680993049B13605E46FFF718B889
:1052F000299A1599C9F800101399C9F804100132B8
:105300000C44072A2A94299200F3AE8009F1080977
:10531000002BA9DA5D421033164B80F287821946C2
:1053200010272346DDE9068A0C4605E009F1080945
:10533000103D102D40F3778201321033072ACDE95A
:105340002923C9E90047F1DD28AA5146404602F069
:105350000FF900287EF423AFDDE929230DF1AC0914
:10536000E6E73046FEF7CCFDAA460746FFF70CB845
:10537000587F001A747F001A607F001A22461C466C
:1053800013462A4601320A9207F10802C7E900389B
:105390000A9B29934444072B2A943FF712AF013309
:1053A0000A9302F108091746FFF7ABBB029F099B5E
:1053B00017F4007F44D093F900400992E517224684
:1053C0002B46FFF71CB8029FB90547BF0992E4B20C
:1053D000029F09920025FEF7F7BF029F0992B805C8
:1053E0004CBFE4B2029F00250123FEF74FBF2146C8
:1053F0001C460B4601322C44072ACDE92924C9E971
:10540000003542DC09F1080924E42D228DF88320BF
:10541000FFF75DB928AADDE9060102F0A9F8002826
:105420007EF4BDAE229B2A9C0DF1AC0903E7129AD3
:10543000B518A5EB0A05D31A9D42A8BF1D4640E446
:105440001C680992E517029F22462B46FEF7D7BF3C
:10545000E4B20025FEF7C2BE099A09931268049BC4
:1054600013805E46FEF75CBF28AADDE9060102F064
:105470007FF800287EF493AE229BDDE929240DF10C
:10548000AC0945E74FF0060AFCE428AADDE906016D
:1054900002F06EF800287EF482AE2A9C0DF1AC0971
:1054A000FFF7D8BB029FFFF77EB9B246129B0E9E54
:1054B000DDF82CB0CDF86080F3189A450C46914683
:1054C00028BF9A46FFF7CDBB0E9BDA1C01DB9A453D
:1054D00005DAA8F1020828F0200303930AE5129BDD
:1054E00019460E9B994200F359810A9AD70740F159
:1054F000C981139A9F180A9B5D0503D50E9B002B4B
:1055000000F3F68127EAE77303934FF0670800235F
:105510000C930F9351E52D228DF883204FF0000A54
:10552000FEF741BF28AA4946584602F021F8002854
:105530007EF435AE98F800302A992BAA1E4407E66F
:1055400028AADDE9060102F013F800287EF427AE50
:105550002A9C0DF1AC09FFF775BB199B1799F61A38
:105560001A46304601F0CAFF98F801300BB108F135
:1055700001080A220023204629464FF0000BFDF7C0
:10558000EBFDFFF760B928AADDE9060101F0F0FFA5
:1055900000287EF404AE229B2A9C0DF1AC09FFF793
:1055A00078BB26AA23ABCDE90032032122AB5246B9
:1055B0009DED1C0B069800F0C3FA0378302B0646CD
:1055C00000F0CD81229B5344F41800220023DDE932
:1055D0001C01FDF751FD08B127467FE4269FA74235
:1055E000BFF47CAC30227B1C26933A70269FBC42D1
:1055F000F9D873E40A9B0E9A03F00103002A43EAE8
:105600000A0340F3BF81002B40F09A810E9F4FF0B8
:1056100066080A9B5A0500F16D8127EAE773039338
:1056200075E75746CDF80CA0099482460C90CDE959
:105630000E009DF88320FEF7B3BE30238DF8843032
:1056400058238DF88530029BBAF1630F43F00203B3
:105650000A9300F3DD80002308933BAE029A119B6E
:1056600042F481720292002B28F020020392C0F2D1
:105670008C809DED107B8DED1C7B00231E93B8F17B
:10568000610F00F01D81B8F1410F7FF40AAC22A830
:105690009DED1C0B01F0FCFE00224FF07F5351ECFE
:1056A000100BFDF781FA00220023CDE90C01FDF774
:1056B000E3FC08B101232293B64B0B93CDE90EB85E
:1056C0000AF1FF35CDF848A0CDF87C90DDF82CB07C
:1056D000DDE90C89B2460C9603E0FDF7CDFC20BB5A
:1056E000BA460022AC4B40464946FDF75DFA894672
:1056F0008046FDF709FD0646FDF7ECF902460B462C
:1057000040464946FDF798F857461BF8064007F80B
:10571000014BB5F1FF3F2C46804689464FF0000211
:105720004FF0000305F1FF35D7D14046494600222E
:105730009A4BDDF838B0DDF83C80CDF838A035461E
:10574000DDF87C900C9EDDF848A0CDE90C01FDF75A
:10575000BBFC00283FD1DDE90C0100228F4BFDF797
:105760008BFC08B1E90736D4002CFFF6B7AB631CFD
:105770003B44302207F8012BBB42FBD1FFF7AEBB05
:10578000029B0A93002308930292DDE9101202F1B2
:1057900000431D932D231C911E9370E7DDE9123207
:1057A0009F180E9B002B40F3D1804FF0670830E725
:1057B00028AADDE9060101F0DBFE00287EF4EFAC4B
:1057C000229B129A2A9CD31A0DF1AC09FFF779BAE1
:1057D00006EB0A04F9E60E9B26930B9B17F8012CA7
:1057E000D97B91423B4609D1302003F8010C269B1E
:1057F0005A1E269213F8012C9142F6D0392A0BBF7B
:105800000B9A0132927AD2B203F8012CFFF766BBF1
:105810000AF101010698FDF78FFF0646002800F007
:10582000ED8008901AE721461C460B4601322C44B5
:10583000072ACDE92924C9E900357FF713AD28AA45
:10584000DDE9060101F094FE00287EF4A8ACDDE954
:1058500029240DF1AC0907E50AF1010426A923ABBF
:10586000CDE90031224622AB02219DED1C0B0698AA
:1058700000F066F906463444A7E630238DF88430FC
:105880007823DEE60E9F36E6002940F0988030232C
:105890008DF892300DF19303303203F8012B24AAD6
:1058A0009B1A1693FFF773BB119B3D4E002BB6BF9F
:1058B0002D229DF883208DF883203A4BFEF709BFF7
:1058C00022A89DED1C0B01F0E3FD00224FF07F5359
:1058D00051EC100BFDF768F900220023CDE90C0113
:1058E000FDF7CAFB08B1012322932F4B0B93E5E68A
:1058F0004FF06708189800220C920F9203780E9AC6
:10590000FF2B0CD093420ADA4178D21AA1B10F9B37
:1059100001330F930B46FF2B00F10100F2D10E92E1
:105920000F9B0C9A18901344199A02FB037727EAED
:10593000E7730393FFF741BB0C9901310C91DFE74B
:10594000139BD71857444FF0660862E6C3F1010372
:105950001F4427EAE77303934FF06708D7E5002257
:105960000023DDE91C01FDF787FB00287FF42AAE48
:10597000CAF10103229326E60A9BDB077FF510ABF1
:10598000FFF70CBB93B9012303931F464FF0660842
:10599000BDE500BF447F001A000030400000E03F3A
:1059A000287F001A2C7F001A307F001A139B5F1C7F
:1059B000574427EAE77303934FF06608A7E50DF114
:1059C000920369E74A46E1E4099B9BF8018053F89A
:1059D000040B0993934640EAE07AFEF761BB069A0E
:1059E0000C2313604FF0FF330493FEF7E7BB5446DC
:1059F0003444EAE502231693FFF7C9BA079A93895C
:105A000043F040039381FEF7D2BB1F46FFF714BA61
:105A10001F46FFF7EBBA1F46FFF7DABA2DE9F04F42
:105A200003690F69BB4283B0C0F28680013F01F178
:105A3000140600F1140A56F827305AF82720BC0043
:105A40000133009406EB04099A425444B2FBF3F884
:105A500001943AD300252A46B646D4465EF8044B54
:105A6000DCF800301FFA84FB08FB0B554FEA154B9E
:105A7000240C08FB04B4ADB2551BA2B2C2EB134216
:105A800015FA83F302EB23429BB243EA0243F1454A
:105A90004FEA14454CF8043B4FEA2242DED2009B09
:105AA0005AF803308BB9019A131F9A450CD252F859
:105AB000043C4BB9A2F1080302E01A68043B1AB98E
:105AC0009A4507F1FF37F8D30761044601F032FA2F
:105AD00000282DDB08F101085046002356F8041B6E
