:020000041A00E0
:1000000000800010AD04001A7901001A7B01001A6B
:100010007D01001A7F01001A8101001AE273FF536B
:100020000000000000000000000000008301001A32
:100030008501001A000000008701001A2119001A2A
:10004000BB01001ABB01001ABB01001A000000002E
:10005000BB01001ABB01001ABB01001ABB01001A48
:10006000C919001ABB01001ABB01001ABB01001A12
:10007000BB01001ABB01001ABB01001ABB01001A28
:10008000BB01001ABB01001ABB01001ABB01001A18
:10009000BB01001ABB01001ABB01001ABB01001A08
:1000A000BB01001ABB01001ABB01001ABB01001AF8
:1000B000BB01001ABB01001ABB01001ABB01001AE8
:1000C000BB01001ABB01001ABB01001ABB01001AD8
:1000D000BB01001ABB01001ABB01001ABB01001AC8
:1000E000BB01001ABB01001ABB01001ABB01001AB8
:1000F00000000000BB01001ABB01001ABB01001A7E
:1001000000000000BB01001ABB01001ABB01001A6D
:10011000BB01001A0038001A00000010AC000000FB
:100120000038001A00000810000000000038001A13
:1001300000000020000000000038001A00800020AD
:10014000000000000038001A00C00020000000007D
:10015000B00000109801000000000810000000002E
:1001600000000020000000000080002000000000CF
:1001700000C0002000000000FEE7FEE7FEE7FEE70B
:10018000FEE7FEE7FEE7FEE7FEE7002393420AD222
:1001900010B450F8044B41F8044B04339342F8D3A5
:1001A0005DF8044B7047704700238B4204D2002255
:1001B00040F8042B0433F8E77047FEE7FFFFFFFF2A
:1001C000FFFFFFFFFFFFFFFFFFFFFFFFFFFFFFFF3F
:1001D000FFFFFFFFFFFFFFFFFFFFFFFFFFFFFFFF2F
:1001E000FFFFFFFFFFFFFFFFFFFFFFFFFFFFFFFF1F
:1001F000FFFFFFFFFFFFFFFFFFFFFFFFFFFFFFFF0F
:10020000FFFFFFFFFFFFFFFFFFFFFFFFFFFFFFFFFE
:10021000FFFFFFFFFFFFFFFFFFFFFFFFFFFFFFFFEE
:10022000FFFFFFFFFFFFFFFFFFFFFFFFFFFFFFFFDE
:10023000FFFFFFFFFFFFFFFFFFFFFFFFFFFFFFFFCE
:10024000FFFFFFFFFFFFFFFFFFFFFFFFFFFFFFFFBE
:10025000FFFFFFFFFFFFFFFFFFFFFFFFFFFFFFFFAE
:10026000FFFFFFFFFFFFFFFFFFFFFFFFFFFFFFFF9E
:10027000FFFFFFFFFFFFFFFFFFFFFFFFFFFFFFFF8E
:10028000FFFFFFFFFFFFFFFFFFFFFFFFFFFFFFFF7E
:10029000FFFFFFFFFFFFFFFFFFFFFFFFFFFFFFFF6E
:1002A000FFFFFFFFFFFFFFFFFFFFFFFFFFFFFFFF5E
:1002B000FFFFFFFFFFFFFFFFFFFFFFFFFFFFFFFF4E
:1002C000FFFFFFFFFFFFFFFFFFFFFFFFFFFFFFFF3E
:1002D000FFFFFFFFFFFFFFFFFFFFFFFFFFFFFFFF2E
:1002E000FFFFFFFFFFFFFFFFFFFFFFFFFFFFFFFF1E
:1002F000FFFFFFFFFFFFFFFFFFFFFFFFFFFFFFFF0E
:1003000008B50420002101F0D5FB08BD38B505462D
:1003100000210F2001F0C2F9FFF7F2FF002406E0F0
:1003200000210F2001F0BAF9FFF7EAFF0134072C92
:1003300009DC45FA04F313F0010FF1D001210F207D
:1003400001F0ACF9F0E701210F2001F0A7F9FFF768
:10035000D7FF38BD10B50446207818B1FFF7D6FF97
:100360000134F9E710BDFFFF38B5054601460948DD
:1003700002F0F8FB6D000024AC4207D24FF4FA7093
:10038000002101F097FB30BF0134F5E7024802F08D
:100390006FFC38BD8033001AA833001A70B52DEDFC
:1003A000028BA0B001F01EFB4FF4E131032001F0FD
:1003B000CDFA002001F0DCF90C2001F09BFC0021BB
:1003C0000F2001F095F801210F2001F067F9204876
:1003D00002F04EFC1F4802F04BFC0F211E4802F0B9
:1003E000C1FB002416E002940196009518EE903AA5
:1003F00018EE102A194907A802F042FC07AA214664
:10040000174802F0AFFB07A8FFF7A4FF01340F2045
:10041000FFF7AAFF022000F027F80546012000F0B0
:1004200023F8064600230593069305A906A801F0C4
:1004300069FC9DED058ABDEEC88ADDED068AFDEEFC
:10044000E88A0028CFD1074802F012FCCBE700BFB2
:10045000B833001AEC33001A2034001A7034001A32
:10046000A034001A5034001A00B583B001F0DCF952
:1004700007EE900AF8EE676ADFED097A86EEA77A52
:10048000DFED087A27EE277A77EEC77AFCEEE77A77
:10049000CDED017A9DF8040003B05DF804FB00BFC8
:1004A00000C07F440000C8427047FFFF10B572B61D
:1004B000194B1A4A1A600433194A1A60002305E0DE
:1004C000184A4FF0FF3142F823100133072BF7D9B8
:1004D00062B6154B07E003F10C049A685968186876
:1004E000FFF753FE2346114A9342F4D306E01C461D
:1004F000596854F8080BFFF757FE23460C4A9342FD
:10050000F5D300F0B1FF01F06BFFFFF7CDFFFFF770
:1005100045FF30BFFDE700BF003105400010DF1090
:10052000FFF7DF0180E200E01401001A5001001A19
:100530007801001A70477047092303604FF0FF30BD
:100540007047582303604FF0FF307047022904D9E9
:10055000092303604FF0FF30704701207047582394
:1005600003604FF0FF30704702291FD82DE9F0419A
:100570001D46174606460024AC4211D200F087F90A
:10058000B0F1FF3FF8D004F1010838550D2803D031
:100590000A2801D04446EFE700F079F9404603E02D
:1005A000132333604FF0FF30BDE8F0811323036065
:1005B0004FF0FF30704702290CD870B51D46164623
:1005C0000024AC4204D2305D00F05CF90134F8E75D
:1005D000284670BD132303604FF0FF307047FFFFC4
:1005E000054B1B6823B1044B186801441960704720
:1005F000014B024A1A60F6E7B000001048020010F2
:1006000000231C2B12D810B4094A02EB830112F804
:1006100023404A78488802EB4412064941F82200F8
:1006200001331C2BF0D95DF8044B7047704700BFB5
:10063000B034001A0060084010B5174AD2F82031D3
:1006400023F4704343F41043C2F82031D2F824312C
:1006500023F4704343F41043C2F8243101220F49BC
:10066000062000F0B5F900244CB10B4B5A6822F07B
:100670000C025A605A6842F003025A6010BD0848E2
:1006800000EB840101238A78497810F8240000F0F7
:100690005FFD0134E8E700BF0030044000CB280CC8
:1006A000AC34001A08B5FFF7ABFFFFF7C5FF08BD74
:1006B0000022052A19D870B40C4911F8125001EB28
:1006C00042014C780A4B05F5006653F826100120CC
:1006D000A040014343F8261003EB451300211955B0
:1006E0000132052AE8D970BC704770473035001ACE
:1006F00000400F400023032B16D830B40B4911F8EB
:10070000132001EB43014D78094C02F5006254F8C7
:1007100022100120A84021EA000144F822100133F0
:10072000032BEBD930BC7047704700BF2835001A47
:1007300000400F400023082B16D830B40B4911F8A5
:10074000132001EB43014D78094C02F5006254F887
:1007500022100120A84021EA000144F822100133B0
:10076000082BEBD930BC7047704700BF3C35001AEE
:1007700000400F4010B582B0084C6946204600F09A
:100780000BFA074A6946204600F071FA00226946D2
:10079000204600F085FA02B010BD00BF00300E40C8
:1007A000801A060010B50B4C204600F0B7F86368BD
:1007B00023F004036360236823F0FF0343F007037F
:1007C00023600549204600F08AF8636843F002037D
:1007D000636010BD00500C40A086010008B50020E9
:1007E00000F0C8F8044B40F60802C3F8842C034913
:1007F000002000F0D1F808BD0060084040420F0022
:1008000010B5074C204600F077FD4FF4E13120464B
:1008100000F0BCFD0323E3600123E36510BD00BFCE
:1008200000100C40034B5B6913F0200FFAD0014B12
:100830001860704700100C40054B5B6913F0010F06
:1008400003D0034B1868C0B270474FF0FF307047B9
:1008500000100C4008B5FFF7D3FF094800F064F919
:10086000FFF768FFFFF786FFFFF79CFFFFF7B6FF74
:10087000FFF71EFFFFF73EFF00F03EFA08BD00BF86
:1008800000400F4008B5C0B2FFF7CCFF08BD08B567
:10089000FFF7D2FF08BD08B5FFF7B2FF08BDFFFFA5
:1008A000034B984201D083207047A520704700BFBA
:1008B00000500C40044B984202D040F20220704796
:1008C0004FF4F170704700BF00500C40036823F4F0
:1008D0007F43090289B2194301600261704770B514
:1008E00006460D46FFF7E6FF00F0CAFC02224FF075
:1008F000FF33002100E02146AB420BD94C1C02FB28
:1009000004F3B0FBF3F39D42F6D2FF2CF3D902328D
:100910000021F1E73046FFF7D9FF70BD10B504465E
:10092000FFF7BEFF00F078FC2046FFF7C3FF00F0A2
:1009300073FC636823F004036360236823F0FF0300
:1009400043F00703236002492046FFF7C8FF10BDAC
:10095000A0860100012909D1C0EBC0008200044B30
:1009600013441A69137DDBB2042BFBD0704700BF20
:100970000000001070B50546064EC400221A930010
:100980003344988800F048FC641BA300F3586C22A1
:100990009A6170BD000000102DE9F0410C460B4E2D
:1009A000C5002B1A4FEA830806EB0803988800F06D
:1009B00067FCB0FBF4F056F8083042081A6156F8AC
:1009C00008301A69801A5861BDE8F08100000010F3
:1009D00070B58AB005460E4614464CF25033099362
:1009E000062818D0002301222946042000F0B0FB7D
:1009F0004A4A536C43F0010353648DF8085001A92F
:100A0000304600F01DFB464B9E4216D9019B13F069
:100A1000400F03D0FEE700F075FAE3E713F0800F14
:100A200005D023F0800301930025012607E0049BF5
:100A3000013304930125002601E000252E469DF890
:100A40000820019B43EA0263059A43EA0243039AA2
:100A500043EA0233049A43EA022343F400632F4A31
:100A600053642E4B1B6C13F0010FFAD000230122AC
:100A70000921042000F06CFB06B34CF250330993BB
:100A8000099B5A1E0992002BFAD1019B43F0800367
:100A900001939DF8082043EA0263059A43EA024362
:100AA000039A43EA0233049A43EA022343F40063BD
:100AB0001A4A5364002C2ED10AB070BD002DF9D013
:100AC0004CF250330993099B5A1E0992002BFAD11C
:100AD000049B5A1E04929DF80810019B43EA01638F
:100AE000059943EA0143039943EA013343EA0223A8
:100AF00043F40063094A5364DCE70A4800EB8401CD
:100B0000CB788A78497810F8240000F021FB013472
:100B1000112CF2D9D0E70024FAE700BF000005400D
:100B200080778E065435001A7047FFFF034B9842BA
:100B300001D0032070470420704700BF00400E40E2
:100B400070B50D4614461E46FFF7F0FF00F098FB07
:100B500055B104FB06F404EB40006400B0FBF4F074
:100B6000C0B20138C0B270BD04EB840304EB43048F
:100B7000F1E7036823F0E06343EA01610160704735
:100B8000043150F82130002B04DAC3F389131380A9
:100B9000012070470020704738B505460C46FFF726
:100BA000C5FF01231A46194600F018FB0021E96031
:100BB000084A2260217161710B232846FFF7C0FFAC
:100BC000000240F400132079400400F46020184330
:100BD000286038BD801A060008B54FF48072C260E4
:100BE00000220260FFF7A2FF00F030FB08BD08B54D
:100BF000FFF7C6FF08BD012A0AD01AB1022A0FD09A
:100C000000207047006BC84000F00100C0B2704780
:100C10000831C9B2006BC84000F00100C0B2704793
:100C2000036B1B0C14BF012000207047012A06D063
:100C3000C36801228A4023EA0203C360704710B4EC
:100C4000C4688A401443C4605DF8044B704708B51B
:100C5000012904D932B1036843F000630360FFF750
:100C600088FF08BD036823F000630360F7E770B5F1
:100C700005460E46046824F46F2424F470640A6068
:100C80000B79C3F10B03DBB24979FFF759FF44EA53
:100C9000002033795B0403F4602303432B6070BDB1
:100CA00008B50A710A68FFF7E2FF08BD012A0AD0F9
:100CB000026822F0E0620260036801228A4023EAAF
:100CC00002030360704710B404688A401443046050
:100CD0005DF8044B704738B504460D460021FFF718
:100CE00048FF25B9236823F48033236038BD236887
:100CF00043F480332360F9E708B5692000F0C0FAB7
:100D0000014B186008BD00BF2C020010F0B40B6846
:100D100013F0800F02D023F040030B60074601253B
:100D20003AE04B6903FB02F3B3FBF5F31CE01C460E
:100D3000B0EB040C27D4674506D98D60771CCF60D3
:100D40000A618C61CB6167460132B2F5807F1DDCA0
:100D50000C6814F0400FE4D0731C02FA03FC4B69DA
:100D600003FB0CF3B3FBF5F3DFF838C06345EBD9B5
:100D7000DFF834C0634509D814F0800FD7D1741C54
:100D800023FA04F4D4E7CCF1000CD4E70136032EA7
:100D900001DC0122D9E70135042D01DC0026F6E74C
:100DA000F0BC7047FF5E4C0900D01213F0B599B04B
:100DB00005460C465C22002101A801F046FB802379
:100DC00000936369059323798DF8043069462846BA
:100DD000FFF79CFF069BAB4227D0EB1A2ED41E4692
:100DE000109B23F0400310936369159323798DF8CA
:100DF000443010A92846FFF789FF169BAB421FD04D
:100E0000EB1A25D41F462B4B9D4223D90E9BED1A7E
:100E100033D4AE423BDCBE4231DC6D460FCD0FC455
:100E200095E80F0084E80F0006E06D460FCD0FC473
:100E300095E80F0084E80F0019B0F0BD5B42CEE7E3
:100E400010AD0FCD0FC495E80F0084E80F00F3E755
:100E50005B42D7E74023089363690D9308A92846AE
:100E6000FFF754FF0E9BAB42D0D108AD0FCD0FC49E
:100E700095E80F0084E80F00DEE76D42C9E710AD8A
:100E80000FCD0FC495E80F0084E80F00D4E7AF4200
:100E900007DB08AD0FCD0FC495E80F0084E80F0005
:100EA000CAE710AD0FCD0FC495E80F0084E80F001E
:100EB000C2E700BF80778E0630B4054600231C20B1
:100EC00000E001331C2818D103EB430251000C4A07
:100ED0000A441479844210D003EB43014A000849C4
:100EE0008A5AAA42EDD803EB43025100044A0A444D
:100EF0005288AA42E5D32046E4E730BC704700BFE1
:100F0000A835001A82B04FF47A7301930D4A9369A1
:100F100023F0020192698A4201D00A4A916123F0CA
:100F20000303094A1168094A914201D943F00403B5
:100F3000044A9361019B5A1E0192002BFAD102B020
:100F4000704700BF000005405035001AFF2C3101EA
:100F50001230054B53F8200010F0010F02D1C0F3FE
:100F600004607047112070470000054000F1120234
:100F7000034B53F82220034B185C00EA92007047A1
:100F800000000540A035001A08B510280AD8DFE88F
:100F900000F0440B0D18210924272A2D09093034AB
:100FA000383C400000203AE01E4838E01E4BD3F8A1
:100FB0002C3103F00703042B01D01C482FE0002044
:100FC0002DE0194BD3F82C3103F00703042B27D065
:100FD000164824E0164B186821E0164B18681EE0EE
:100FE000154B18681BE0144B586818E000F068F8BF
:100FF00015E0002100F09AF811E0012100F096F8C8
:101000000DE0022100F092F809E0032100F08EF8D3
:1010100005E0042100F08AF801E04FF4004008BD2B
:101020000648FCE7001BB7000030044040787D0113
:101030002435001A5035001AB400001080F0FA026E
:1010400038B505460C460879FFF79EFF6061194BDD
:101050002B44194A934221D818B3802323600023DC
:10106000A360E360B5FBF0F32361144A954203D912
:1010700003FB00F0A84207D021462846FFF796FE62
:10108000A3688BB1013BA360236983B1E2680AB115
:10109000013AE260013B2361002038BD4FF0FF3090
:1010A000FBE74FF0FF30F8E74FF0FF30F5E74FF088
:1010B000FF30F2E7103A6BFF1005940BFF5E4C090E
:1010C00030B583B0174D6C6CC4F30360FFF75CFF61
:1010D000154B1B6801932B6C13F0010F20D0C4F348
:1010E0000743C4F30132C4F30121C4F38015013373
:1010F00001320DF1080C614411F8041C14F0800F4A
:1011000008D13DB94900B3FBF1F3B0FBF2F000FBAD
:1011100003F003E0B0FBF2F003FB00F003B030BDDE
:101120000020FBE7000005409C35001A38B50C464E
:101130000846FFF70DFF05462046FFF717FF044658
:101140002846FFF721FF0134B0FBF4F038BDFFFF64
:1011500030B400F11604A40004F1804404F5A02486
:1011600064681B2813D811291AD00E4D25400AB1E6
:1011700045F400650BB145F0010545EA01651630FF
:10118000800000F1804000F5A020456008E044F0B8
:1011900001041630800000F1804000F5A02044607A
:1011A00030BC7047FEF7FFE01B280CD816308000DB
:1011B00000F1804000F5A020406810F0010F04D13C
:1011C000C0F304607047112070471120704708B5C4
:1011D000FFF7EAFFFFF7D8FE08BDFFFF71B9012155
:1011E0000AB141F00401022B0AD0B0F5A17F0AD365
:1011F000A0F59170064B43F8301070470321EFE7DC
:1012000041F02001F1E72030024B43F830107047E5
:101210000020054000100540B0F5A17F09D3094A20
:10122000A0F5917052F8303043F0010342F83030AD
:101230007047054A203052F8303043F0010342F83D
:10124000303070470020054000100540B0F5A17F08
:1012500009D3094AA0F5917052F8303023F0010308
:1012600042F830307047054A203052F8303023F0D1
:10127000010342F83030704700200540001005405F
:1012800010B5B0F5A17F09D3A0F591730D4A52F8BE
:10129000334014F0010F07D1002010BD00F12003EE
:1012A000094A52F83340F4E7FFF706FEFFF78FFFD5
:1012B00014F0E00F03D10123B0FBF3F0EDE70223BC
:1012C000FAE700BF0020054000100540094B984296
:1012D00009D003F58053984207D0A3F580239842A4
:1012E00005D000207047022070470320704701207E
:1012F000704700BF00100C4030B583B00446FFF7C4
:10130000E5FF01231A4619460E4D35F81000FFF788
:1013100065FF0723A3600023E3656360E360236246
:10132000E36463652365084B9C4206D00323E360B6
:101330001023A362019B03B030BD00232361A36986
:101340000193F3E71C36001A0020084038B5054623
:101350000C46FFF7BBFF0C4B33F81000FFF790FF74
:101360002301B0FBF3F3D9B2EA6842F08002EA60ED
:101370002960C3F307226A60EA6822F08002EA600B
:10138000B0FBF3F0000938BD1436001A2DE9F04F18
:1013900083B001908846FFF799FF324B33F8100075
:1013A000FFF76EFF06464FF0FF3701244FF0000BAA
:1013B000A246D9462AE042424B1C17E00AB3174620
:1013C000AB46A24699460135AC421ED933093007D7
:1013D000A4FB000104FB0311621908FB02F20023C5
:1013E00000F0C6FC02460B460028E4DB9742EAD335
:1013F000002BE8D0190CE6D1022BDFD8002DDDD070
:10140000E1E71746AB46A246994601341FB10F2CBF
:1014100001D80025D8E7B9F1000F1ED0019A114676
:10142000D36843F08003D3605FFA89F31360C9F394
:1014300007235360D36823F08003D3604FEA0A1375
:10144000DBB20BF00F0213438B6233090AFB03F389
:10145000DA4409FB0AF9B3FBF9F9484603B0BDE8E1
:10146000F08F00BF1436001A08B50B4A0B4B9A6078
:1014700003F50C731B6903F47F63202B04D0FFF783
:1014800011F9FFF7E7F908BD044AD2F8883043F4B0
:101490007003C2F88830F2E70000001A00ED00E0A7
:1014A000044B1860044A136843F0010313600120E1
:1014B000704700BF38000010001000E030B40B4D42
:1014C00000EB80002C182856087094F90110117058
:1014D00094F902201A7094F90320029B1A7094F96F
:1014E0000420039B1A7030BC704700BF2436001ADA
:1014F00010F1020F00F0C780B0F1FF3F00F0C5808F
:1015000070B584B00C4600238DF80F308DF80E3086
:101510008DF80D308DF80C308DF80B300DF10B037C
:10152000019303AB00930DF10D030DF10E020DF1CC
:101530000F01FFF7C3FF052C00F2A980DFE804F0DC
:101540008109274563035348FFF7EEFA012004B0F1
:1015500070BD9DF80F109DF80E309DF80D2042F0E3
:10156000D00203EB41134C4941F823209DF80C3085
:101570009DF90B20012000FA02F1464C03F50063AF
:1015800054F8232022EA010244F82320DFE79DF8E3
:101590000F109DF80E309DF80D2042F0C00203EBB5
:1015A00041133D4941F823209DF80C309DF90B2053
:1015B000012000FA02F1374C03F5006354F82320B0
:1015C00022EA010244F82320C1E79DF80F109DF89C
:1015D0000E309DF80D2042F0D80203EB41132E4946
:1015E00041F823209DF80C309DF90B20012000FAD2
:1015F00002F1284C03F5006354F8232022EA01028B
:1016000044F82320A3E79DF80F109DF80E309DF8B5
:101610000D2042F0C80203EB41131F4941F823207B
:101620009DF80C309DF90B20012000FA02F1194CB5
:1016300003F5006354F8232022EA010244F8232032
:1016400085E79DF80F109DF80E309DF80D2042F0B3
:10165000D00203EB4113104941F823209DF80C40C0
:101660009DF90B20012000FA02F10A4B04F50065F8
:1016700053F82560314343F82510D2B203EB4413ED
:101680000021995463E70020704700207047002034
:101690005DE700BF00400F400060084010F1020FFE
:1016A0002DD0B0F1FF3F2CD010B584B00C460023F4
:1016B0008DF80F308DF80E308DF80D308DF80C3020
:1016C0008DF80B300DF10B03019303AB00930DF17B
:1016D0000D030DF10E020DF10F01FFF7EFFE9DF866
:1016E0000C309DF80B20211C18BF01215B0103F178
:1016F000402303F570239954012004B010BD00204D
:1017000070470020704710F1020F2CD0B0F1FF3F5E
:101710002BD000B585B000238DF80F308DF80E303A
:101720008DF80D308DF80C308DF80B300DF10B036A
:10173000019303AB00930DF10D030DF10E020DF1BA
:101740000F01FFF7BBFE9DF90C309DF80B205B01EC
:1017500003F1402303F57023985C003018BF01208B
:1017600005B05DF804FB0120704700207047FFFFC3
:1017700030B583B018B101284AD003B030BD264B34
:101780006D4693E8030085E80300244C2946204673
:10179000FFF702FA00212046FFF79DFA204A29466A
:1017A0002046FFF764FA002201212046FFF77EFA67
:1017B000002201212046FFF739FA002202212046AB
:1017C000FFF774FA002202212046FFF72FFA0022C9
:1017D00003212046FFF76AFA002203212046FFF783
:1017E00025FA002204212046FFF760FA0022042196
:1017F0002046FFF71BFA0B4AD2F8883C43F010034F
:10180000C2F8883C002205212046FFF70FFAB4E712
:101810000248FFF7E1F9B0E70C37001A00300E403C
:10182000400D03000060084070B582B00130C4B2C2
:101830000026ADF80660114D012221462846FFF72B
:1018400035FA324601212846FFF701FA00222146E7
:101850000A48FFF7D0F90128F8D1084D0DF106022A
:1018600021462846FFF7C3F9002221462846FFF704
:101870001DFABDF8060002B070BD00BF00300E407A
:10188000014BD3E900017047C000001018B1044BB0
:1018900007221A607047024B00221A60704700BF8F
:1018A00010E000E038B550EA01042AD010F1FF3210
:1018B00041F1FF33002B08BF322A27D2144BC3E972
:1018C0000001144B1B68A3FB004503FB01554FF4BB
:1018D0007A7200232046294600F04AFA0138B0F116
:1018E000807F09D20C4B58600C4AE02182F823100B
:1018F00000229A6007221A600120FFF7C7FF01202B
:1019000038BD0020FFF7C2FF0020F9E70020F7E70D
:10191000400000102C02001010E000E000ED00E09C
:1019200008B5074A13685168013341F1000113609B
:101930005160044B1B6813B1034A1068984708BDF7
:10194000C0000010C8000010BC0000102DE9F843D2
:1019500080468946194C45002A189300E618E75836
:101960003846FFF7C9FC49463846FFF7EFFC072326
:10197000BB603B680123FB6530797379B27942F033
:1019800018020F4903EB401341F82320F079337A12
:10199000727A42F0D00203EB401341F82320B8F1F1
:1019A000010F01D0BDE8F883064AD36C43F0300341
:1019B000D3641A22C1F80823F4E700BF1437001AD1
:1019C000006008400010084008B5044B1B681B6805
:1019D000DB68034A1068984708BD00BF300200105A
:1019E000CC00001008B5FFF787F91A4B1868FFF70D
:1019F00057FD01200021FFF755FF05210020FFF7CB
:101A000077FD01212420FFF773FD01212520FFF739
:101A10006FFD01212620FFF76BFD01212720FFF735
:101A200067FD00212820FFF763FD00212920FFF733
:101A30005FFD00212A20FFF75BFD00212B20FFF72F
:101A400057FD00212C20FFF753FD00212D20FFF72B
:101A50004FFD08BD2C020010F0B484B04FEA810C99
:101A600083004CEA90721B1841EB0202110241EA1A
:101A700013611802C61A61EB02073B0143EA1673B1
:101A8000320116461F46CDE90067DDE90023CDE9A6
:101A90000223DDE90223134308D0DDE9022312F11A
:101AA000FF3443F1FF35CDE90245F2E704B0F0BC65
:101AB0007047FFFF2DE9F84380468946FFF7E0FEB7
:101AC00006460F46FFF7DCFE841B61EB0705064B5D
:101AD000D3E900234046494600F04AF98D4208BF49
:101AE0008442EFD3BDE8F8834000001030B1064ACD
:101AF0001060054B1A68054B1A607047024B4FF493
:101B00007A721A60F5E700BF380200103402001044
:101B100008B5064B1B6823B1013B044A1360012042
:101B200008BD0020FFF7E2FF0020F9E734020010B3
:101B3000254B19685868022300E00133502B08DC5C
:101B4000214A52F823208A4239D28242F5D300201A
:101B5000704770B40021022617E01C48425C520016
:101B600042F0010242540233AB420CDA164A52F8F8
:101B700023005C1C52F824209042EED91348425CAA
:101B800052004254EFE710360131042906DC0F4BB6
:101B900000225A5406F10F053346E5E70B4A137845
:101BA00051780B44917851FA83F3D17851FA83F349
:101BB000DBB212799A4204D1012070BC7047002038
:101BC00070470020F9E700BFDC000010D4000010CF
:101BD00008B50221024B93F90000FFF789FC08BD0C
:101BE000D000001010B5064C002194F90000FFF75A
:101BF0007FFC002194F90000FFF750FD10BD00BFED
:101C0000D000001008B5034B93F90000FFF77BFDEF
:101C100008BD00BFD0000010F8B5FFF7E3FF1420A7
:101C20000021FFF719FFFFF7D3FF0026354637469F
:101C3000344642E005243DE04FF47A70FFF756FF4A
:101C400003E0FFF765FF00284AD09CBBFFF7DAFFEF
:101C50000028F6D10124F4E70020FFF747FF012C0C
:101C600028D10135FFF7CEFF012805D0FFF750FF3F
:101C70000028F4D10324F2E71D4B43F82650013627
:101C800000250224F2E70020FFF730FF03E0FFF712
:101C90003FFF00B90324022C0CD10135FFF7B2FF3E
:101CA0000028F4D1124B43F82650013600250124B8
:101CB000EDE70127512E00D905249FB9052CB9D88D
:101CC00001A353F824F000BF391C001A591C001A54
:101CD000871C001A351C001A351C001AB31C001A88
:101CE0000324E7E7522E00D000273846F8BD00BF96
:101CF000DC00001008B5024B1860FFF769FF08BD53
:101D0000D000001038B505460C46FFF785FF0128C6
:101D100001D0002038BDFFF70BFF012801D00020C3
:101D2000F8E7124B1A7807EE902AF8EE677A5A789D
:101D300007EE102AB8EE477AF2EE046A87EE266ABA
:101D400077EE867AC5ED007A9A7807EE902AF8EE5B
:101D5000677ADB7807EE103AB8EE477A87EE266AA4
:101D600077EE867AC4ED007AD4E700BFD400001085
:101D700053B94AB9002908BF00281CBF4FF0FF31F2
:101D80004FF0FF3000F074B9ADF1080C6DE904CEEE
:101D900000F006F8DDF804E0DDE9022304B0704746
:101DA0002DE9F047089E04468846002B40F08580C8
:101DB0008A42154648D9B2FA82F24AB1C2F12007E6
:101DC00001FA02F320FA07F7954047EA0308944026
:101DD0004FEA154E230CB8FBFEF71FFA85FC0EFBED
:101DE000178843EA084307FB0CF1994209D9EB181D
:101DF00007F1FF3080F0E380994240F2E080023F3B
:101E00002B445B1AA4B2B3FBFEF00EFB103344EA82
:101E1000034400FB0CFCA44509D92C1900F1FF3345
:101E200080F0CB80A44540F2C88002382C4440EAC0
:101E30000740A4EB0C0400271EB1D4400023C6E9E0
:101E400000433946BDE8F087002A53D0B2FA82F247
:101E5000002A40F0B680491B4FEA154E1FFA85F85C
:101E60000127B1FBFEFC230C0EFB1C1143EA0143CE
:101E700008FB0CF1994207D9EB180CF1FF3002D2A4
:101E8000994200F2EC808446591AA3B2B1FBFEF0ED
:101E90000EFB101443EA044408FB00F8A04507D9E0
:101EA0002C1900F1FF3302D2A04500F2DC80184665
:101EB000A4EB080440EA0C40BEE78B4208D9002E90
:101EC00078D00027C6E9000138463946BDE8F087DA
:101ED000B3FA83F77FB98B4202D3824200F2BD800E
:101EE000841A61EB030301209846002EA9D0C6E9AD
:101EF0000048A6E7FFDEC7F12005BB4022FA05FC3B
:101F00004CEA030C01FA07F420FA05F821FA05F36C
:101F10004FEA1C4E48EA0404B3FBFEF9210C0EFB09
:101F200019331FFA8CF841EA034309FB08FA9A4572
:101F300002FA07F200FA07F10BD91CEB030309F1CF
:101F4000FF3080F088809A4540F28580A9F102092F
:101F50006344A3EB0A03A4B2B3FBFEF00EFB103301
:101F600044EA034400FB08F8A04508D91CEB04042C
:101F700000F1FF336BD2A04569D90238644440EACE
:101F80000940A4EB0804A0FB02894C45C6464B4619
:101F900054D351D0002E69D0B1EB0E0264EB030490
:101FA00004FA05F522FA07F3FC401D43C6E9005484
:101FB000002746E73746304643E7184637E70746E7
:101FC0001FE7C2F1200320FA03F7954001FA02F05F
:101FD00021FA03F34FEA154E3843010CB3FBFEF729
:101FE0001FFA85F80EFB173341EA034107FB08F39C
:101FF0008B4204FA02F407D9691807F1FF3C28D292
:102000008B4226D9023F2944CB1A81B2B3FBFEF0A2
:102010000EFB103341EA034100FB08F38B4207D962
:10202000691800F1FF3C10D28B420ED902382944C6
:10203000C91A40EA074714E74145ABD2B8EB020E94
:1020400069EB0C0201381346A4E76046F0E7184636
:1020500095E76746D8E781467BE7384645E7ACF128
:10206000020C2B4410E702382C4421E73746E8E6FF
:10207000704700BF8A892DE9F041054610070C46DC
:1020800058D44B68002B05DC0B6C002B02DC0020C5
:10209000BDE8F081E66A002EF9D0002312F48052E8
:1020A0002F682B6032D0606DA3895A0705D563680D
:1020B000C01A636B0BB1236CC01A00230246E66A98
:1020C000216A2846B047431CA38906D129681D29E7
:1020D00049D82A4ACA40D60745D500226260D904A9
:1020E0002269226004D5421C01D12B6803B96065C6
:1020F000616B2F600029CAD004F14403994202D0D9
:10210000284600F0ABF900206063C1E7216A012393
:102110002846B047411CC7D12B68002BC4D01D2BCB
:1021200001D0162B01D12F60B1E7A38943F0400302
:10213000A381ADE70F69002FA9D093070E6808BFF0
:102140004B690F6018BF0023A6EB07088B60B8F13E
:10215000000F9CDD43463A46216AA66A2846B047EE
:10216000002806DCA38943F04003A3814FF0FF3031
:102170008EE70744A8EB0008E9E700BF0100402014
:1021800038B50B6905460C4613B90025284638BDFD
:1021900018B183690BB900F087F8144B9C421BD12E
:1021A0006C68B4F90C30002BEFD0626ED00704D409
:1021B000990502D4A06D00F038F928462146FFF7B2
:1021C00059FF636EDA070546E0D4A3899B05DDD489
:1021D000A06D00F02BF9D9E7054B9C4201D1AC680A
:1021E000DFE7044B9C4208BFEC68DAE77C37001A53
:1021F0009C37001A5C37001A002310B50446C0E96A
:102200000033836081814366C281C0E90433836106
:10221000194608225C3000F018F9054B6362054B43
:10222000A362054BE362054B2462236310BD00BF2C
:10223000C12C001AE32C001A1B2D001A3F2D001A86
:10224000014900F0AFB800BF8121001A70B54A1EE5
:10225000682555430E4605F1740100F04DF904461A
:1022600040B10021C0E900160C30A06005F1680201
:1022700000F0EBF8204670BD014800F0D6B800BF72
:1022800044020010014800F0D1B800BF4402001021
:10229000014800F0CAB800BF3F020010014800F03A
:1022A000C5B800BF3F02001010B50446FFF7F0FFAD
:1022B000A3691BB1BDE81040FFF7F0BFC4E91233BA
:1022C0002365134B134A1B68A262A34204BF012378
:1022D000A361204600F020F86060204600F01CF862
:1022E000A060204600F018F80022E0600421606839
:1022F000FFF782FF01220921A068FFF77DFF02227C
:102300001221E068FFF778FF0123A361D2E700BF45
:10231000BC37001A4122001AF8B50746FFF7ACFF98
:102320001E4B1E68B36913B93046FFF7BDFF483630
:10233000D6E90134013B03D533680BB33668F7E7C0
:10234000B4F90C50D5B9164BE36004F1580065663A
:1023500000F06AF8FFF796FF2560C4E90155C4E96B
:102360000455A5610822294604F15C0000F06DF8CF
:10237000C4E90D55C4E912552046F8BD6834D9E7C3
:1023800004213846FFF762FF044630600028D5D1AB
:10239000FFF778FF0C233B60EEE700BFBC37001A65
:1023A0000100FFFF2DE9F8438046894600F148040B
:1023B000002614B93046BDE8F883D4E90175013F21
:1023C00001D52468F5E7AB89012B07D9B5F90E30A3
:1023D000013303D029464046C84706436835EEE737
:1023E00070B50D4D0D4C641BA4100026A64209D1FA
:1023F0000B4D0C4CFEF79FF8641BA4100026A64260
:1024000005D170BD55F8043B98470136EEE755F805
:10241000043B98470136F2E7F437001AF437001A04
:10242000F437001AF837001A7047704770470A44AB
:10243000914200F1FF3300D1704710B511F8014B04
:1024400003F8014F9142F9D110BD02440346934273
:1024500000D1704703F8011BF9E7FFFF38B50546C7
:10246000002945D051F8043C0C1F002BB8BFE418DC
:1024700000F0F8FD1F4A1368104633B9636014601A
:102480002846BDE8384000F0F3BDA3420CD92168CE
:102490006218934204BF1A685B68636004BF5218F5
:1024A00022600460ECE713465A680AB1A242FAD9E6
:1024B00019685818A0420BD120680144581882426C
:1024C0001960DDD1106852685A6001441960D7E77D
:1024D00002D90C232B60D3E7206821188A4204BF5D
:1024E00011685268626004BF091821605C60C7E728
:1024F00038BD00BF24020010F8B5CD1C25F003053F
:1025000008350C2D38BF0C25002D064601DBA942ED
:1025100003D90C2333600020F8BD00F0A3FD21494E
:102520000A6814469CB9204F3B6823B921463046BF
:10253000FEF756F8386029463046FEF751F8431C3E
:1025400023D10C233360304600F092FDE3E723688B
:102550005B1B17D40B2B03D923601C44256004E0BC
:102560006368A2420CBF0B605360304600F080FDF0
:1025700004F10B00231D20F00700C21ACCD01B1A57
:10258000A350C9E722466468CCE7C41C24F00304C6
:10259000A042E3D0211A3046FEF722F80130DDD107
:1025A000CFE700BF24020010280200109368013B0F
:1025B000002B10B4936008DA9469A34201DB0A2966
:1025C00003D15DF8044B00F0BFBB1368581C1060CA
:1025D000197008465DF8044B7047F8B506460F467B
:1025E0001446D518AC4201D1002007E03A4614F851
:1025F000011B3046FFF7DAFF431CF3D1F8BDFFFFA4
:102600002DE9F04F0D469DB014461E46074618B101
:1026100083690BB9FFF748FE854B9D421BD17D684E
:102620006B6ED90705D4AB899A0502D4A86DFFF764
:10263000FCFEAB891B0701D52B69EBB9294638464F
:1026400000F0D4FBC0B16B6ED8070ED54FF0FF3051
:102650001DB0BDE8F08F774B9D4201D1BD68DFE72B
:10266000754B9D4208BFFD68DAE7AB899905EDD44B
:10267000A86DFFF7DBFEE9E70023099320238DF81F
:102680002930DFF8B891039630238DF82A304FF0C7
:10269000010A23461E4613F8012B0AB1252AF9D157
:1026A000B6EB040B0BD05B46224629463846FFF7B3
:1026B00094FF013000F0A380099B5B4409933378B9
:1026C000002B00F09C8000234FF0FF32CDE9052362
:1026D0000136049307938DF853301A93344605223C
:1026E00014F8011B554800F053FC049BC0B9DA06EE
:1026F00044BF20228DF85320180744BF2B228DF8A9
:10270000532032782A2A13D0079A344600200A260A
:10271000214611F8013B303B092B4BD970B914E02D
:10272000A0EB09000AFA00F0184304902646D5E70A
:10273000039A111D12680391002A01DB079204E03D
:10274000524243F002030792049323782E2B0CD1BC
:1027500063782A2B33D1039B1A1D1B680392002B2D
:10276000B8BF4FF0FF3302340593354E2178032272
:10277000304600F00DFC38B14023801B03FA00F016
:10278000049B03430134049314F8011B2D488DF876
:102790002810062200F0FCFB00283FD02A4B13BB78
:1027A000039B073323F0070308330393099B434438
:1027B00009936EE706FB023201200C46A8E70023CE
:1027C0000134059319460A26204610F8012B303AA9
:1027D000092A03D9002BC8D00591C6E706FB0121C1
:1027E00001230446F0E703AB00932A46174B04A9E4
:1027F0003846AFF30080B0F1FF3F8046D6D16B6E14
:10280000D90705D4AB899A0502D4A86DFFF70EFE4F
:10281000AB895B063FF51AAF099819E703AB009344
:102820002A460A4B04A9384600F088F8E3E700BFBF
:102830007C37001A9C37001A5C37001AC037001A20
:10284000C637001ACA37001A00000000DB25001A3C
:102850002DE9F04791461F468A680B69DDF8208014
:102860009342B8BF1346C9F8003091F8432006469A
:102870000C4612B10133C9F800302368990642BFF3
:10288000D9F800300233C9F80030256815F0060584
:1028900007D104F1190AE368D9F800209B1AAB426A
:1028A00028DC94F843302268003318BF01239206D5
:1028B0002DD404F1430239463046C047013020D0C0
:1028C0002368E568D9F8002003F00603042B08BF4D
:1028D000AD1AA36822690CBF25EAE575002593426D
:1028E000C4BF9B1AED184FF000091A344D451AD198
:1028F000002008E00123524639463046C0470130E7
:1029000003D14FF0FF30BDE8F0870135C3E7E11890
:102910005A1C302081F84300224494F8451082F874
:1029200043100233C5E70123224639463046C047EB
:102930000130E6D009F10109D8E7FFFF2DE9F043A6
:1029400006460C4601F14300097E85B06E29984683
:1029500017460C9B00F0BA8024D8632939D00AD8D6
:10296000002900F0C380582900F0918004F142054D
:1029700084F8421035E0642901D06929F6D1256830
:102980001A6815F0800F02F104012CD0126819604A
:10299000002A03DA2D23524284F84330DFF8BCC109
:1029A0000A233FE0732900F0A58008D86F2921D0C1
:1029B0007029DBD1226842F02002226003E07529F1
:1029C00018D07829D2D1782284F84520DFF890C138
:1029D00061E01A68111D1960136884F8423004F12F
:1029E0004205012393E01268196015F0400F18BFEB
:1029F00012B2CDE7D4F800C01A681CF0800F02F1C3
:102A000004051D6001D0126803E01CF0400FFAD0ED
:102A10001288DFF848C16F290CBF08230A23002160
:102A200084F843106568A560002DA2BF216821F0DD
:102A3000040121600AB9002D46D00546B2FBF3F12E
:102A400003FB112E93421CF80EE005F801ED39D975
:102A5000082B0BD12368DA0708D5236962689A42EC
:102A6000DEBF302305F8013C05F1FF35401B206136
:102A7000CDF800803B4603AA21463046FFF7E8FE2A
:102A8000013049D14FF0FF3005B0BDE8F083DFF8E9
:102A9000CCC084F845101D68216855F8042B1D60D2
:102AA0000D060BD5CD0744BF41F0200121601AB9B6
:102AB000236823F0200323601023B0E74B0648BFB0
:102AC00092B2EFE70A46B9E70546C1E71A68D4F8BB
:102AD00000C06169151D1D601CF0800F136801D0D6
:102AE000196003E01CF0400FFAD019800023236125
:102AF0000546BDE71A68111D196015686268002156
:102B0000284600F045FA08B1401B60606368236105
:102B1000002384F84330ABE723692A463946304620
:102B2000C0470130AED023689B0713D4E068039BF5
:102B30009842B8BF1846A7E701234A4639463046AF
:102B4000C04701309ED00135E368039A9B1AAB421F
:102B5000F2DCEBE7002504F11909F5E7D137001A9B
:102B6000E237001A0FB40A4B13B51C6824B1A369ED
:102B700013B92046FFF798FB05AB049AA1680193AF
:102B80002046FFF73DFD02B0BDE8104004B070479D
:102B90004800001070B50E46054618B183690BB9A0
:102BA000FFF782FBAB69AC6813B92846FFF77CFBE3
:102BB0002C4B9C4220D16C68636EDB0705D4A38943
:102BC000980502D4A06DFFF730FCA38919071DD525
:102BD0002369DBB1013EA36816F8011F013BA36026
:102BE00039BB002B38DA22460A21284600F0ACF81F
:102BF000013011D00A2511E01B4B9C4201D1AC6879
:102C0000DAE71A4B9C4208BFEC68D5E72146284614
:102C100000F0ECF80028DDD04FF0FF35636EDA07E6
:102C200005D4A3899B0502D4A06DFFF7FFFB2846BE
:102C300070BD002B04DAA2699A4206DC0A2904D08E
:102C400023685A1C22601970C5E72246284600F006
:102C50007BF80130BFD1DFE723680A255A1C2260C8
:102C60001D70DBE77C37001A9C37001A5C37001AAE
:102C7000024B01461868FFF78DBF00BF48000010E7
:102C80000EB400B59CB01DAB029006906FF00041F1
:102C9000094807910491094953F8042B05910068EC
:102CA000019302A900F06CFA029B00221A701CB07A
:102CB0005DF804EB03B07047480000100802FFFF06
:102CC00010B50C46B1F90E10FDF74EFC0028ABBF55
:102CD000636DA3891B1823F48053ACBF6365A38184
:102CE00010BD2DE9F0411F468B89DB0505460C46DA
:102CF000164605D502230022B1F90E10FDF72FFC70
:102D0000A389B4F90E1023F48053A38132463B46C5
:102D10002846BDE8F041FDF74EBC10B50C46B1F9B0
:102D20000E10FDF71CFC431CA38915BF606523F43E
:102D3000805343F48053A38118BFA38110BDB1F920
:102D40000E10FDF7F9BBFFFFF8B50E461446054619
:102D500018B183690BB9FFF7A7FA214B9C422BD11D
:102D60006C68A369A360A3891A072FD523696BB385
:102D700023692068C01A6369F6B28342374604DCCF
:102D800021462846FFF7FCF930BBA368013BA3604E
:102D900023685A1C22601E7063690130834204D08C
:102DA000A389DB0706D50A2E04D121462846FFF762
:102DB000E7F988B93846F8BD0A4B9C4201D1AC68A6
:102DC000CFE7094B9C4208BFEC68CAE7214628467A
:102DD00000F00CF80028CBD04FF0FF37EAE700BF37
:102DE0007C37001A9C37001A5C37001A324B70B5DA
:102DF0001D6806460C4625B1AB6913B92846FFF796
:102E000053FA2E4B9C420FD16C68B4F90C309AB235
:102E100015072CD4D00611D40922326043F04003A8
:102E2000A3814FF0FF303EE0254B9C4201D1AC68BE
:102E3000EBE7244B9C4208BFEC68E6E7510712D54C
:102E4000616B41B104F14403994202D03046FFF76F
:102E500005FB00236363A38923F02403A3810023DC
:102E6000636023692360A38943F00803A381236976
:102E70004BB9A38903F42073B3F5007F03D0214637
:102E8000304600F045F8A28912F001030CD000236F
:102E9000A36063695B42A361236953B9B4F90C3041
:102EA00013F08000BAD170BD920758BF6369A36068
:102EB000F2E70020F7E700BF480000107C37001A57
:102EC0009C37001A5C37001A70B50E46B1F90E1027
:102ED000002996B014461D4607DA00232B60B389FB
:102EE0001A0610D44FF480630EE06A46FDF729FB02
:102EF0000028F2DB019A02F47042A2F500535A4214
:102F00005A412A60EEE740230020236016B070BDCE
:102F10008B8973B59D0706460C4607D504F1470318
:102F2000236023610123636102B070BD01AB6A4677
:102F3000FFF7CAFF009905463046FFF7DDFA48B9AA
:102F4000B4F90C309A05EFD423F0030343F00203E5
:102F5000A381E3E70D4BB362A389206043F08003B4
:102F6000A381009B6361019B20615BB1B4F90E10EA
:102F70003046FDF7EBFA28B1A38923F0030343F0B1
:102F80000103A381A3891D43A581CDE74122001A36
:102F900001F0FF01102A2BDB10F0070F08D010F80A
:102FA000013B013A8B422DD010F0070F42B3F6D10E
:102FB000F0B441EA012141EA014122F007047FF027
:102FC00000070023F0E80256083C85EA010586EA7E
:102FD000010685FA47F5A3FA87F586FA47F6A5FABA
:102FE00087F68EB9EED1F0BC01F0FF0102F00702C6
:102FF00032B110F8013B013A83EA010313B1F8D171
:103000000020704701387047002D06BF3546033851
:10301000073815F0010F07D1013015F4807F02BF8A
:10302000013015F4C03F0130F0BC0138704700BFDB
:10303000884210B501EB020302D983421C4607D82F
:10304000421E994208D011F8014B02F8014FF8E7EF
:1030500083189A1A9A4200D110BD14F8011D03F882
:10306000011DF7E70148FFF7E0B900BF400200107B
:103070000148FFF7DBB900BF40020010F8B5074672
:1030800014460E4621B91146BDE8F840FFF734BAA0
:1030900022B9FFF7E3F925462846F8BD00F068F9A4
:1030A000A0420FD221463846FFF726FA05460028EF
:1030B000F2D031462246FFF7BAF931463846FFF7DB
:1030C000CDF9E9E73546E7E72DE9F0478E689E42FE
:1030D00082460C469146984638D8B1F80CC01CF48C
:1030E000906F31D062692568096902EB42026F1A5C
:1030F00002EBD272013355103B449D4238BF1D464E
:103100001CF4806F30D02946FFF7F6F9064650B917
:103110000C23CAF80030A38943F04003A3814FF089
:10312000FF30BDE8F0873A462169FFF780F9A389AF
:1031300023F4906343F08003A381266165613E44DC
:10314000ED1B2660A5604646464500D946463246F8
:1031500049462068FFF76CFFA3689B1BA3602368A8
:103160001E4426600020DCE72A46FFF787FF06465C
:103170000028E2D121695046FFF770F9C8E7FFFF48
:103180002DE9F04F1E468B891B069DB007460D4664
:1031900014460ED50B6963B94021FFF7ADF92860DD
:1031A000286120B90C233B604FF0FF30C9E0402379
:1031B0006B610023099320238DF82930DFF89C915F
:1031C000039630238DF82A304FF0010A23461E461D
:1031D00013F8012B0AB1252AF9D1B6EB040B0BD059
:1031E0005B46224629463846FFF76EFF013000F065
:1031F000A380099B5B4409933378002B00F09C80EB
:1032000000234FF0FF32CDE90523013604930793E5
:103210008DF853301A933446052214F8011B4F4899
:10322000FFF7B6FE049BC0B9D90644BF20228DF833
:1032300053201A0744BF2B228DF8532032782A2AB4
:1032400013D0079A344600200A26214611F8013B84
:10325000303B092B4BD970B914E0A0EB09000AFAF6
:1032600000F0184304902646D5E7039A111D126812
:103270000391002A01DB079204E0524243F002036B
:103280000792049323782E2B0CD163782A2B33D109
:10329000039B1A1D1B680392002BB8BF4FF0FF332E
:1032A000023405932E4E217803223046FFF770FE3C
:1032B00038B14023801B03FA00F0049B0343013420
:1032C000049314F8011B27488DF828100622FFF7F5
:1032D0005FFE002838D0244B13BB039B073323F039
:1032E000070308330393099B434409936EE706FBE6
:1032F000023201200C46A8E7002301340593194649
:103300000A26204610F8012B303A092A03D9002B4F
:10331000C8D00591C6E706FB012101230446F0E76A
:1033200003AB00932A46114B04A93846AFF3008043
:10333000B0F1FF3F8046D6D1AB895B063FF534AF95
:1033400009981DB0BDE8F08F03AB00932A46074BE8
:1033500004A93846FFF7F2FAEAE700BFC037001ABF
:10336000C637001ACA37001A00000000C930001A18
:1033700051F8043C181F002BBCBF0B58C0187047F5
:103380004475726D69656E646F20706F722025647C
:1033900020736567756E646F7320636F6E20574688
:1033A000492E2E2E0000000020446573706965725E
:1033B000746F210D00FFFFFF0A3D3D3D2045445540
:1033C0002D43494141202D3E2048454C5445432042
:1033D000284750494F3120736F66747761726520BA
:1033E0005541525429203D3D3D0D000053656E73FB
:1033F0006F7265733A204C757A28434833292C2024
:1034000048756D5375656C6F28434832292C2044EC
:1034100048543131284750494F37290D00000000EA
:103420004D4F444F2042414A4F20434F4E53554D3C
:103430004F3A20536C65657020256420736567756D
:103440006E646F7320636F6E205746490D0A0A0041
:103450004572726F72206C6579656E646F204448A6
:1034600054313120656E204750494F370D00000020
:1034700074656D703A25642C68756D5F6169723A88
:1034800025642C6C757A3A25642C68756D5F736FB2
:10349000696C3A25642C636F756E743A25640A0072
:1034A0005B54582025645D20257300FF010F010146
:1034B000020044000201440002024400020A4000EB
:1034C000020B4000020C40000100500001015000BE
:1034D0000102500001065000060150000604500091
:1034E000060550000607540006085400060950005F
:1034F000060A5000060B5000060C50000F04F000A6
:103500000103D5000104D50007011600070256008B
:103510000203520002045200090552000906570036
:10352000060257000000000000040008000901091D
:10353000050005010502000E010B010C0300030349
:103540000304050F05100305030603070208FFFF28
:10355000001BB70000010100090901000A09010070
:103560000107010102090100060901000C0901011E
:103570000D0901000E0901000F09010010090100E9
:1035800011090100120901001309010014110100C1
:10359000191101001A1101001B1101000102040898
:1035A000030F0F0FFF000000000005000A002000BD
:1035B000240009004000400005006000A60004004F
:1035C000C000C3000200E000E000010000010001B3
:1035D0000300200120010600400140010C004201CF
:1035E000420119006201620113008201820112008E
:1035F000A201A2011100C201C2011000E201E20118
:103600000F00020202020E00220222020D0023021B
:1036100023021C00C201A20182016201810082001A
:10362000A100A2000401000201070500030D01052D
:103630000001080402000202040300020304000067
:103640000200070400030C0302040509030104053A
:103650000802030405030204040504060C00020822
:10366000060B0003070609000305060704050F06FD
:103670000400030304040002040405000205040618
:10368000000206040804050C040A04050E010300E8
:10369000000A011400000F011200000D01110000CA
:1036A0000C0110000003070700030F0001000001D8
:1036B0000000000000060A000306060804051006C4
:1036C000050003040601000300040904050D0104BC
:1036D00000000B010F0000020100000004010100C6
:1036E00000080102000009010600010902000405AA
:1036F0000002010405010202040502020A00000E94
:10370000020B00010B020C00010CFFFF801A0600E7
:103710000A00000000100840060402060502180016
:103720000010084009050709060718000020084096
:10373000000000000000190000100C4007010607FF
:1037400002061A0000100C40010F010110011A00BE
:1037500000200C400203020204021B0000000000D3
:103760000000000000000000000000000000000059
:103770000000000000000000000000000000000049
:103780000000000000000000000000000000000039
:103790000000000000000000000000000000000029
:1037A0000000000000000000000000000000000019
:1037B0000000000000000000000000004C000010AD
:1037C000232D302B2000686C4C006566674546470A
:1037D000003031323334353637383941424344458D
:1037E00046003031323334353637383961626364FC
:0437F000656600FF0B
:0437F4009708001A18
:0837F800A8E5FF7F01000000BD
:1038000000100A40220000005509001A00000000C4
:1038100000000000000000000000000000000E405A
:10382000010000005509001A00000000000000001F
:10383000000000000000000000CB280CFFFFFFFF8D
:1038400001000000000000004C000010000000001B
:103850007C37001A9C37001A5C37001A0000000001
:103860000000000000000000000000000000000058
:103870000000000000000000000000000000000048
:103880000000000000000000000000000000000038
:103890000000000000000000000000000000000028
:0C38A0000000000000000000000000001C
:040000051A0004AD2C
:00000001FF
